:020000040001F9
:10400000C03B0020C1410100D3410100D541010066
:1040100000000000000000000000000000000000A0
:10402000000000000000000000000000D741010077
:104030000000000000000000D9410100DB41010048
:10404000DD410100DD410100DD410100DD410100F4
:10405000DD41010000000000DD410100DD41010003
:10406000DD410100DD410100DD410100DD410100D4
:10407000DD410100DD410100DD410100DD410100C4
:10408000DD41010069670100DD410100DD41010002
:104090008B670100DD410100F16B0100DD41010092
:1040A000DD410100DD4101000000000000000000D2
:1040B0000000000000000000000000000000000000
:1040C00000F002F800F040F80CA030C808382418BE
:1040D0002D18A246671EAB4654465D46AC4201D140
:1040E00000F032F87E460F3E0FCCB6460126334232
:1040F00000D0FB1AA246AB4633431847104A0000D3
:10410000304A0000103A02D378C878C1FAD8520772
:1041100001D330C830C101D504680C60704700007D
:104120000023002400250026103A01D378C1FBD8D3
:10413000520700D330C100D50B6070471FB5C04691
:10414000C0461FBD10B510BD04F0A8FC1146FFF716
:10415000F5FF00F0C9FD04F0C0FC03B4FFF7F2FF67
:1041600003BC04F0C5FC0000401E00BF00BF00BF40
:1041700000BF00BF00BF00BF00BF00BF00BF00BF47
:1041800000BFF1D17047000070B505460C461646D9
:1041900002E00FCC0FC5103E102EFAD2082E02D32B
:1041A00003CC03C5083E042E07D301CC01C5361F3E
:1041B00003E021782970641C6D1C761EF9D270BD55
:1041C0000A4802680F210A430260094880470948EB
:1041D0000047FEE7FEE7FEE7FEE7FEE7FEE700003A
:1041E00005480649064A074B704700002405004071
:1041F0009F420100C1400100C02B0020C03B0020B5
:10420000C0330020C03300202E482F49086070477B
:104210002E48008CC0B2012810D12C48808C000799
:10422000000F0BD12948806AF0210840402805D1B1
:104230002648C06A084201D1012070470020FCE7EF
:104240002248008CC0B2012827D12048808C00076A
:10425000000F22D11D48806AF021084205D11B4879
:10426000C06A084201D1012070471848806AF021D5
:104270000840102805D11548C06A084201D1012024
:10428000F2E71248806AF0210840302805D10F4833
:10429000C06A084201D10120E6E70020E4E710B53A
:1042A000FFF7CEFF002805D009480A494860C81327
:1042B00009498861FFF7ACFF002802D001200749B7
:1042C000886010BD0024F40000200020C00F00F022
:1042D000DFFF07C000050040006C00400006004002
:1042E00030B513048C0023430524240707252D0231
:1042F00064198500635130BD052000F01CFD00BF2E
:10430000BFF34F8FFD48FE49C860BFF34F8F00BF1A
:1043100000BFFEE704460D462A462146F948FFF74E
:10432000EBFF70B5D4252946F74801F072F8044632
:10433000002C0DD0082C0BD0F448844208D0F4484F
:10434000844205D000BFF3A2CC212046FFF7D4FF62
:1043500070BD10B50446FFF7E4FF10BD70B506460A
:10436000EF49F04801F013FE85B2EF480068401CA9
:10437000ED4908602946ED4801F03AFA0446002C60
:104380000DD0082C0BD0E148844208D0E04884428C
:1043900005D000BFDFA2F9212046FFF7ADFF0321C2
:1043A000E148006804F0CAFA002901D0012000E0C9
:1043B0000020DF49087070BD70B50546DC48007804
:1043C000002809D0DB49DC4801F0E1FD84B2214638
:1043D000D64801F03CFA00BF70BD10B50446D7487E
:1043E000007801214840D549087008460178CF4837
:1043F00001F05EFA10BD10B5012000F093FC03201F
:1044000000F090FC052000F08DFC10BDF8B500BF59
:104410000020CB4B05221146009002F0BAF9054668
:1044200000BF2E46002E06D000BFBAA2FF214131A8
:104430003046FFF761FF00BF00BFC24A0121C248FA
:1044400002F026FA044600BF2546002D06D000BF24
:10445000B0A2FF2147312846FFF74EFF00BFBB4AFD
:104460000121BB4802F014FA044600BF2546002D86
:1044700006D000BFA7A2FF214C312846FFF73CFF22
:1044800000BFB44A0121B44802F002FA044600BF5A
:104490002546002D06D000BF9EA2FF21513128469F
:1044A000FFF72AFF00BFAD4A0121AD4802F0F0F945
:1044B000044600BF2546002D06D000BF95A2FF216F
:1044C00056312846FFF718FF00BFF8BD3EB500BFC4
:1044D0006846007801090901491C00916846007886
:1044E000F02188431030009000BF0A229DA1684649
:1044F0007CDF044600BF2546002D06D000BF85A204
:10450000FF216A312846FFF7F7FE00BF984878DFA1
:10451000044600BF2546002D06D000BF7DA2FF2126
:104520006D312846FFF7E8FE00BF002001900290A1
:10453000FF219131684681804900C18000210181BD
:10454000FF219131418101A87ADF044600BF254651
:10455000002D06D000BF6FA2FF2177312846FFF75C
:10456000CBFE00BF3EBD30B593B006210391814A1A
:1045700007CA6B4607C33C2104A804F0DDF90220FA
:104580000490012168464175018303A90791032125
:10459000818569460C91002104A801F05FFC044666
:1045A00000BF2546002D06D000BF5AA2FF2198313A
:1045B0002846FFF7A1FE00BF14216F4804F0BCF9A4
:1045C00000206D4908704860087228200882B420D5
:1045D000488213B030BD30B59BB003210091142147
:1045E00016A804F0A9F900201690012110A801775F
:1045F0006846189000BF18A8007901090901491CF4
:1046000018A801710079F0218843103018A90871A9
:1046100000BF00BF16A8407B0009000116A948731F
:1046200016A8407BF021884316A9487300BF00BF3D
:1046300016A8807B00090001887316A8807BF021F2
:10464000884316A9887300BF00BF18A8C079010964
:104650000901491C18A8C171C079F02188431030A4
:1046600018A9C87100BF00BF16A8007C000900018E
:1046700016A9087416A8007CF021884316A90874AE
:1046800000BF2A4801F07EF8044600BF2546002DF1
:1046900006D000BF1FA2FF21C3312846FFF72CFE22
:1046A00000BF142111A804F047F900BF10A8407CF6
:1046B00001090901491C10A84174407CF02188437C
:1046C000103010A9487400BF00BF11A8807B0009FA
:1046D0000001401C11A9887311A8807BF021884338
:1046E000103011A9887300BF00BF11A8C07B00095A
:1046F0000001C87311A8C07BF0213FE00400FA0557
:1047000000ED00E0EFBEADDE042400200330000029
:10471000013400002E2E5C6D61696E2E6300000076
:104720007C2400201C200020082000201C240020C5
:10473000062000208C240020242000200C200020B3
:1047400010210020534301002C2000205D43010074
:1047500030200020B943010034200020DB43010059
:10476000382000205A4542452D3130303931000083
:1047700041030000008B0100F0230020884311A9B1
:10478000C87300BF00BF10A8007D01090901491CC2
:1047900010A80175007DF0218843103010A908751C
:1047A00000BF00201190012110A801720020139079
:1047B000642110A8017411A9F94800F009FE04460B
:1047C00000BF2546002D06D000BFF64AFF21D53197
:1047D0002846FFF791FD00BF402101A804F0ACF886
:1047E000F1A101A801F0A0FB00BF10A80078010909
:1047F0000901491C10A801700078F021884310308D
:1048000010A9087000BF00BF10A84078000900017F
:10481000487010A84078F021884310A9487000BF64
:1048200001A800F0ADFB044600BF2546002D06D0D0
:1048300000BFDC4AFF21E0312846FFF75DFD00BFE5
:104840001BB030BD10B55120DA49086064204860C3
:10485000012088600873D84801F08CFB8C20D74970
:104860000860FF202D3048600A208860002008730F
:10487000D34801F07FFB6420D2490860FF20F53067
:1048800048600120886000200873CF4801F072FB67
:1048900010BD1E20CD4908800846807840084000A1
:1048A000401C88700846807802218843C749887078
:1048B000084680781C2188430C30C449887008461B
:1048C000807820218843C14988700720C870102053
:1048D0000871704770B5002201210904BC480068C6
:1048E00002F01DF8044600BF2546002D06D000BF8B
:1048F000AC4A852189002846FFF7FEFC00BF002254
:104900000121C903B348006802F009F8044600BF5A
:104910002546002D05D000BFA24AAF492846FFF723
:10492000EBFC00BF0022AD49AD48006801F0F7FF85
:10493000044600BF2546002D06D000BF994AA6496F
:10494000C91C2846FFF7D8FC00BF00220521C90377
:10495000A448006801F0E3FF044600BF2546002D8F
:1049600006D000BF8F4A9C49891D2846FFF7C4FC2A
:1049700000BF70BD70B59C4873DF044600BF25467C
:10498000002D06D000BF874A4521C9002846FFF701
:10499000B3FC00BF012000F0CEF970BD70B5054634
:1049A0002868002810D13B219048008876DF044613
:1049B00000BF2646002E06D000BF7A4A864928311D
:1049C0003046FFF799FC00BF70BD044600BF754A32
:1049D000814933312046FFF78FFC30B587B01C2169
:1049E000684603F0A9FF002000900520C003019055
:1049F00002900321684601737D4881896846C18120
:104A0000002101747B4805907B480690684602F0BF
:104A100086F9044600BF2546002D06D000BF614A36
:104A20006D494A312846FFF767FC00BF07B030BD2B
:104A300070B505462888102806D011280ED01328F6
:104A400025D019284BD135E0032000F074F901205E
:104A500000F076F9A8886549088041E0032000F05D
:104A60006FF90020C0436149088002F0D7FF044677
:104A700000BF2646002E06D000BF4A4A564966317E
:104A80003046FFF739FC00BFFFF774FF28E04F4ABC
:104A90000021564800887FDF044600BF2646002ECE
:104AA00006D000BF3F4A4C496F313046FFF724FC27
:104AB00000BF15E0A879002810D1012000F040F9CE
:104AC00031DF044600BF2646002E06D000BF354A1F
:104AD000292109013046FFF70FFC00BF00E000BFAD
:104AE00000BF70BD10B50446204602F05AFF2146B3
:104AF0003F4800F004FD2146294800F06CFB2046A9
:104B000002F0E1F92046FFF793FF10BD10B504460F
:104B1000204603F08EFB10BD70B500BF002350226D
:104B20003649082002F01DF8054600BF2E46002E2B
:104B300006D000BF1B4A2849AB313046FFF7DCFBEB
:104B400000BF00BF2E4802F041F8044600BF2546D2
:104B5000002D06D000BF134A1F49AF312846FFF78A
:104B6000CBFB00BF274802F03AF8044600BF2546B9
:104B7000002D06D000BF0B4A1749B3312846FFF776
:104B8000BBFB00BF70BD10B5032200211920FFF749
:104B9000A7FB032200211B20FFF7A2FB10BD000092
:104BA0000424002014470100434F4F4C4455444512
:104BB000530000006C240020142000207C240020DE
:104BC0001C2000208C240020242000200E20002007
:104BD0002C20002030200020170200006626000054
:104BE0003420002038200020F02300200420002062
:104BF0001C2400209D490100CB490100A023002076
:104C0000E54A01000D4B0100044600BF4F4A5049E0
:104C10002046FFF771FBFEB503F03FFB044600BFE3
:104C20002546002D06D000BF484A49490E31284686
:104C3000FFF762FB00BF1B2046490969C140C90755
:104C4000C90F002901D1012000E00020064642489A
:104C50004069401C08D001221207126991B23E4AF5
:104C6000506903F06BFE02E0012000074069401E1E
:104C70006946087038484069401C08D00122120774
:104C8000126991B2344A506903F058FE02E00120E3
:104C900000074069C01EC1B2684641700020019003
:104CA0002E4802906846867002F0F8FF044600BF66
:104CB0002546002D06D000BF244A25491B31284631
:104CC000FFF71AFB00BFFEBD70B53DDF044600BF15
:104CD0002546002D06D000BF1C4A6121C900284688
:104CE000FFF70AFB00BF70BDFFF785FBFFF74BFF27
:104CF000FFF712FFFFF78FFFFFF788FBFFF7E6FBD9
:104D0000FFF731FCFFF767FCFFF79CFDFFF765FE3F
:104D1000FFF7BFFDFFF7DEFDFFF72CFE00BFFFF73B
:104D2000D3FFFCE701210522120707231B02D2183B
:104D30008300D150704701218140064A916070473D
:104D400001218140034AD1607047000014470100EF
:104D5000E30200000005005000100010094C0100A3
:104D600070B504460D4600BF002D01D0012000E0C3
:104D700000200646002E05D100BFE6A23321FFF732
:104D8000BBFA00BF00BF00BF002C01D0012000E033
:104D900000200646002E05D100BFDEA23421FFF719
:104DA000ABFA00BF00BF2878207029882879FF233C
:104DB0001B02194000200206080A1043607028797F
:104DC0001B022968194000200204080C1043A0703F
:104DD00029791B022868184000210902000E0843A7
:104DE000E07028792071287A6071190CA868084051
:104DF000000AA0710902A8680840000CE07170BDAB
:104E0000F8B505460E46002400BF002E01D0012053
:104E100000E000200746002F05D100BFBDA24B21B6
:104E2000FFF76AFA00BF00BF00BF002D01D00120CC
:104E300000E000200746002F05D100BFB5A24C219D
:104E4000FFF75AFA00BF00BF32782046611CCCB28F
:104E50002A542919708800F054F90019C4B229198C
:104E6000B08800F04EF90019C4B22919F08800F09A
:104E700048F90019C4B200BF072C01D1012000E09D
:104E800000200746002F05D100BFA2A25421FFF742
:104E900033FA00BF00BFF8BDF0B58FB007460D462E
:104EA00014461E4600BF002D01D0012000E0002066
:104EB00000900098002805D100BF96A26D21FFF751
:104EC0001BFA00BF00BF00BF002C01DD012000E085
:104ED000002000900098002805D100BF8DA26E210F
:104EE000FFF70AFA00BF00BF1C2107A803F024FD4A
:104EF0006946087F02218843801C694608770020A4
:104F000008900A900B900C900D9000BF012108A80A
:104F100081766846078700BF002001903178684697
:104F2000017171784171807906218843811C68463E
:104F300081718079082188430146684681718079B2
:104F400010218843014668468171807941084900F3
:104F500068468171142102A803F0EEFC0EA80290AD
:104F600001A803906846048200214182848206954C
:104F700002AA07A974480088149BA2DF0FB0F0BDF5
:104F80007FB5044600BF0121684681736F49818166
:104F900000BF6D4A03A90120A0DF0546002D02D005
:104FA000284604B070BD208800280DDD68480090B8
:104FB000228823463C3367486168FFF76DFF05464A
:104FC000002D01D02846ECE7208900280EDD62483C
:104FD0000090228923463C335E48401FE168FFF77A
:104FE0005BFF0546002D01D02846DAE7208A00281D
:104FF0000EDD5A480090228A23463C335548001F54
:105000006169FFF749FF0546002D01D02846C8E732
:10501000208B00280EDD52480090228B23463C3323
:105020004C48801EE169FFF737FF0546002D01D08F
:105030002846B6E7208C00280EDD4A480090228CD6
:1050400023463C334348C01E616AFFF725FF0546EF
:10505000002D01D02846A4E7208D00280EDD42480F
:105060000090228D23463C333A48401EE16AFFF708
:1050700013FF0546002D01D0284692E7206B00283B
:1050800013D001A8216BFFF76BFE384823463C3351
:10509000082201A900902F48801FFFF7FDFE05465A
:1050A000002D01D028467CE700BF606B00280FD0A0
:1050B0002F480090606B027923463C3301682548F5
:1050C000401CFFF7E9FE0546002D01D0284668E7A1
:1050D000A06B002813D001A8A16BFFF791FE254813
:1050E00023463C33072201A900901A482730FFF7D6
:1050F000D3FE0546002D01D0284652E700BF002010
:105100004FE702460A70FF2000021040001248706C
:10511000022070472E2E5C2E2E5C2E2E5C2E2E5CD6
:105120002E2E5C536F757263655C626C655C626C9D
:10513000655F73657276696365735C626C655F64F5
:1051400069732E63000000003C2000200A18000054
:105150003E200020292A0000462000204E2000206A
:10516000562000205E200020662000206E200020B7
:10517000762000207E2000208A884282704700220C
:10518000D24342827047F8B504460E46207D00287F
:1051900020D0B51D2988608981421AD1288B022828
:1051A00017D12068002814D000BF00BFA97EEA7E76
:1051B000120211430846C107C90F002902D000207E
:1051C000009001E001200090694620462268904747
:1051D00000BF00BFF8BD70B505460C4620881028FA
:1051E00004D0112807D050280FD109E021462846C5
:1051F000FFF7C2FF0AE021462846FFF7C0FF05E09F
:1052000021462846FFF7BFFF00E000BF00BF70BD8A
:10521000F0B591B004460D46207D002819D000203D
:10522000099000BF08A8007901090901491C08A8D4
:1052300001710079F0218843103008A9087100BF7E
:10524000697B08A84171807906218843801C08A9E0
:1052500088711C210AA803F06FFB08A8007A0221BC
:105260008843811C08A80172007A10218843217D9F
:10527000002901D0012100E0002109011022114084
:10528000084308A9087200200B900D900E90207D15
:10529000002801D009A800E000200F900020109005
:1052A00000BF0121684681737749818100BF0020DA
:1052B0000290A97B68460172E97B4172807A0621DF
:1052C0008843811C68468172807A082188430146A0
:1052D00068468172807A102188430146684681724F
:1052E000807A4108490068468172297B0191142126
:1052F00004A803F021FB03A8049002A80590012153
:1053000068460183002141830121818301A808901F
:10531000A088A31D04AA0AA9A2DF0646002E02D077
:10532000304611B0F0BDA86800284DD000BF012163
:10533000684681735549818100BF00200290287C16
:105340006946087200BF6846407A0109090168464B
:105350004172407AF02188436946487200BF68462E
:10536000807A06218843811C68468172807A0821F0
:105370008843014668468172807A1021884301463D
:1053800068468172807A4108490068468172A9683E
:1053900000F0ACFD0746142104A803F0CDFA03A8E1
:1053A000049002A805906846078300214183018B81
:1053B00081830890E08822460E3204A9A3DF0646C6
:1053C000002E03D03046ACE70020E0810020A8E7A3
:1053D000F8B504460D46286820600020C04360826E
:1053E00028792075FF20207400BF01216846817054
:1053F0002749018000BF221D69460120A0DF064623
:10540000002E01D03046F8BD29462046FFF700FFA8
:10541000F9E733B585B004460025207C6946097E4E
:1054200088422FD0012104916846007E2074E088D4
:1054300006AB04AA0021A4DF0546002D02D02846B1
:1054400007B030BD608A1349884219D0207D0028FA
:1054500016D0002000900190029003900121049149
:10546000E18868460180012181700021818004A8C3
:10547000029006A80390608A6946A6DF054600E010
:10548000082500BF2846DBE7192A0000082900008C
:105490000F180000FFFF00008A8802847047002276
:1054A000D2430284704738B505460C46208B02284B
:1054B00017D12868002814D000BF00BFA17EE27E6B
:1054C000120211430846C107C90F002902D000206B
:1054D000009001E001200090694628462A68904724
:1054E00000BF38BD70B504460D46AE1D3188A08999
:1054F000814203D131462046FFF7D5FF70BD70B51C
:1055000005460C462088102804D0112807D05028C2
:105510000FD109E021462846FFF7BEFF0AE02146E9
:105520002846FFF7BCFF05E021462846FFF7DAFFD3
:1055300000E000BF00BF70BDF7B582B0044617465B
:105540000020019001256079002803D004210198F2
:10555000084301902220005D002803D00221019819
:10556000084301900398FF280ADD012101980843B0
:1055700001907919039800F0AAF94019C5B205E025
:105580000398C2B22846691CCDB23A544C20005B45
:10559000002803DD1021019808430190002618E03F
:1055A000A81C14280BD94C20005B801B4200700003
:1055B00023462433C118184603F078F90DE0791911
:1055C000720023462433985A00F081F94019C5B27D
:1055D000761C4C20005BB042E2DC00BF4C20005B3C
:1055E000801B81B24C20015301983870284605B0C9
:1055F000F0BD30B595B005460C4600200D9000BFBB
:1056000008A8007D01090901491C08A80175007D51
:10561000F0218843103008A9087500BF217B08A835
:105620004175807D06218843811C08A881751C2155
:105630000EA803F081F908A8007E102188431030DD
:1056400008A9087600200F90119012900DA81390D1
:105650000020149000BF012168468177A049818312
:1056600000BF00200690617B68460176A17B4176F1
:10567000807E06218843811C68468176807E0821D1
:105680008843014668468176807E10218843014622
:1056900068468176807E41084900491C68468176CB
:1056A000142108A803F048F907A8089006A8099053
:1056B00001AA00212846FFF73FFF01466846018501
:1056C000002141851421818501A80C90E8882B4692
:1056D000083308AA0EA9A2DF15B030BD30B58FB0CF
:1056E00005460C461C2108A803F026F908A90878ED
:1056F00002218843801C08A90870002009900B90A3
:105700000C900D900E9000BF012168468172744983
:10571000491C018100BF00200190E17B68460171B6
:10572000217C4171807906218843811C6846817102
:10573000807908218843014668468171807910216B
:10574000884301466846817180794108490068466E
:105750008171142103A803F0EFF802A8039001A8B7
:1057600004900121684681820021C18201210183C8
:10577000A0680790E8882B46103303AA08A9A2DF87
:105780000FB030BDF8B504460E4630682060307961
:1057900060710020C04320840021222001554C204C
:1057A000015300BF0121684681704E49018000BF4E
:1057B000A21D69460120A0DF0546002D01D0284624
:1057C000F8BD31462046FFF714FF0546002D01D0F5
:1057D0002846F5E7B068002808D031462046FFF794
:1057E0007DFF0546002D01D02846E9E70020E7E7C8
:1057F000F0B58BB004460F46208C3B49884222D03E
:1058000006AA39462046FFF797FE06460596002071
:1058100001900290039004902189684681800121C3
:1058200081710021018105A8039006A80490208CB5
:1058300001A9A6DF0546002D04D16846808AB04242
:1058400000D00C2500E0082528460BB0F0BD70B54F
:1058500004460D464C20005B14280AD12622A118CC
:10586000881E03F023F84C20005B401E81B24C20C0
:1058700001534C20015B005B401C82B24C20025360
:10588000490020462430455270BD01464C20405A04
:10589000142801D1012070470020FCE70246108C3B
:1058A000114B984202D15171002070470820FCE74B
:1058B00022221154704713B582B004460120019092
:1058C000208A03AB01AA0021A4DF04B010BD024668
:1058D0000A70FF200002104000124870022070473A
:1058E000372A00000D180000FFFF0000F7B584B054
:1058F00004460F4606980678B01C1F2803DC207962
:10590000801C1F2802DD0C2007B0F0BD1F20801B6B
:10591000801E85B20295B11C781802A97DDF039024
:105920000398002801D00398EEE72068022808D1E8
:1059300068460089A84204DC092001906846058970
:105940000BE0082001902079002804D02079A8429B
:1059500001DC257901E068460589681CC2B2304641
:10596000711CCEB23A543046721CD6B201993954E9
:1059700006980178A81C0818C1B20698017000208A
:10598000C2E7F8B505460C462078001D1F2801DD4A
:105990000C20F8BD684679DF0646002E01D030465F
:1059A000F7E703212278501C2070A954192122788E
:1059B000501C2070A954207841196846008800F0D6
:1059C0008AFA2178401820700020E2E7F8B50546F1
:1059D0000F4616461C466868002801D10720F8BD0E
:1059E0002078801C298840181F2801DD0C20F6E74C
:1059F0002878401CC1B22278501C2070B154217804
:105A0000481C207077542A8823789819696802F016
:105A1000E9FE20782978401820700020DFE730B5B3
:105A200003461078C01C1F2801DD0C2030BD022465
:105A30001578681C10704C550A241578681C107075
:105A40004C551578681C10704B550020EEE7FFB5DB
:105A500087B006461D46109C0020069020780590D1
:105A6000002747E0B900706841180A88684602813B
:105A700049884181002203A902A864DF04900498A8
:105A8000002802D004980BB0F0BD6846017B09984D
:105A900081422ED10698002801D0002000E002208B
:105AA000019020786946097B4118019808181F2841
:105AB00001DD0C20E7E70698002809D12078401C7A
:105AC00020702278511C08982170A854012006905B
:105AD0002078421903A902A864DF049004980028E2
:105AE00001D00498CFE720786946097B40182070E0
:105AF00000BF7F1C3088B842B4DC0698002806D06E
:105B000021780598401C081AC1B205982954002034
:105B1000B9E7FFB581B0074615460A9E00960222F6
:105B20003846049B0299FFF792FF0446002C02D0EE
:105B3000204605B0F0BD0096102229463846049B49
:105B4000FFF785FF0446002C01D02046F1E7002036
:105B5000EFE701460888062808DB08881922D201E9
:105B6000904205DD0888E04A904201D00720704746
:105B70004888062808DB48881922D201904205DDB2
:105B80004888D94A904201D00720F0E70888D64AD1
:105B9000904208D04888904205D008884A889042B0
:105BA00001DD0720E3E70020E1E7F8B506460D46F2
:105BB00014462078801D1F2801D90C20F8BD3046DE
:105BC000FFF7C7FF0746002F01D03846F6E705214B
:105BD0002278501C2070A95412212278501C207069
:105BE000A95422785119308800F075F921784018AD
:105BF000207022785119708800F06DF921784018D2
:105C000020700020DAE7F8B505460E4614462879DC
:105C1000801CC7B22078801CC0191F2801DD0C2011
:105C2000F8BD781CC1B22278501C2070B154FF21FD
:105C30002278501C2070B15422789119288800F0E5
:105C40004AF9217840182070A88800280EDDA8683D
:105C5000002801D10720E3E7AA8823789819A968CA
:105C600002F0C0FD20782979401820700020D7E785
:105C7000FEB507460E461446786B002801D1072072
:105C8000FEBD0020019032E0796B0C220198504358
:105C90000D182879801CC0B200900098401CC1B239
:105CA0002278501C2070B15416212278501C20708C
:105CB000B15422789119288800F00DF92178401804
:105CC0002070A88800280EDDA868002801D10720D0
:105CD000D6E7AA8823789819A96802F083FD20786E
:105CE0002979401820700198401CC0B201903820DA
:105CF000C15D01988142C7DC0020C1E7F8B50446C8
:105D00000F4616460025002030702068002809D074
:105D1000324639462046FFF7E9FD0546002D01D001
:105D20002846F8BD6079002808D031463846FFF78C
:105D300028FE0546002D01D02846F2E720890028DC
:105D40000BDD33463A46012120460830FFF73EFE80
:105D50000546002D01D02846E3E7206900280BD036
:105D600000202169085632463946FFF758FE05469D
:105D7000002D01D02846D4E7A08A00280CDD3B4640
:105D800006220221204614300096FFF7C2FE054687
:105D9000002D01D02846C4E7A08B00280CDD3B462F
:105DA0000722032120461C300096FFF7B2FE05466D
:105DB000002D01D02846B4E7A08C00280CDD3B461E
:105DC00015221421204624300096FFF7A2FE054636
:105DD000002D01D02846A4E7E06A002809D0324609
:105DE0003946E06AFFF7E1FE0546002D01D028465E
:105DF00097E7206B002809D032463946206BFFF721
:105E000002FF0546002D01D028468AE73820005DB4
:105E1000002809DD324639462046FFF729FF0546AE
:105E2000002D01D028467CE728467AE701460889FC
:105E3000002807D0C868002804D0C8680078042269
:105E4000104201D1072070470020FCE70146088975
:105E5000002801DD072070470020FCE7F3B593B070
:105E60000D460021129111911398002814D0139817
:105E7000FFF7DCFF0446002C02D0204615B0F0BD31
:105E800012AA09A91398FFF739FF0446002C01D084
:105E90002046F3E709AE00E00026002D13D0284687
:105EA000FFF7D4FF0446002C01D02046E6E711AAF4
:105EB00001A92846FFF722FF0446002C01D0204606
:105EC000DCE701AF00E0002710A803793A46017A29
:105ED000304672DFD2E702460A70FF20000210400F
:105EE0000012487002207047FFFF0000F8B5054619
:105EF0000E46002432782146641C6A54727821468A
:105F0000641C6A5400BF022C01D1012000E0002073
:105F10000746002F05D100BF08A22021FEF7ECF9AB
:105F200000BF00BF2046F8BD70B504460D462846A8
:105F300002F036FC2080656070BD00002E2E5C2EC5
:105F40002E5C2E2E5C2E2E5C2E2E5C536F75726393
:105F5000655C626C655C626C655F736572766963D3
:105F600065735C626C655F7372765F636F6D6D6F96
:105F70006E2E63000A7B002A04D04A680260002269
:105F8000027103E00A680260012202717047024652
:105F9000107900280FD048681368C01A8B6898429F
:105FA00004D910688B68C018106013E0486810604E
:105FB000002010710EE010680B68C01A8B689842C0
:105FC00004D910688B68C01A106003E0086810607C
:105FD000012010711068704710B5002819DAFE4AC8
:105FE00003071B0F083B9B089B00D2588307DC0E5E
:105FF000FF23A3409A438B071B0E8407E40EA340A4
:106000001A43F54B0407240F083CA408A4001A51B6
:1060100018E0F24A03231B02D21883089B00D258CF
:106020008307DC0EFF23A3409A438B071B0E8407D4
:10603000E40EA3401A43E94B032424021B198408ED
:10604000A4001A5110BD10B50446E5488460032130
:106050001120FFF7C1FF10BD10B501200004E14978
:106060004860E04940394860112000F0D4FC11201C
:1060700000F0C3FC0120DC4908602F20FEF774F813
:1060800010BD10B5112001218140D44A8032116029
:1060900000BF01200004D3498860D249403988609C
:1060A0000120D14948602F20FEF75EF810BDF0B501
:1060B000024628205043CD4B1B68C118CC480068CD
:1060C000401C02D1CA48026057E0C9488B6800688A
:1060D00028246043C54C246800198068834217D87F
:1060E000C348006828235843C04B1B68C018806809
:1060F0008B68C31ABE48006828246043BB4C2468E0
:1061000000198360BA4800684862B948026034E008
:106110008B68B74D2C6828680DE028254543B34EA1
:106120003668AD19AD685B1B044628254543AF4E64
:106130003668AD19686A451C07D028254543AB4E23
:106140003668AD19AD689D42E7D3451C0CD02825B3
:106150004543A64E3668AD19AD68EE1A282545436D
:10616000A24F3F68ED19AE608B60486228256543F9
:106170009E4E3668AD196A6200BFF0BD70B502462A
:106180009B4C2168084609E0904200D108E0014696
:1061900028244443954D2D686419606A441CF3D14A
:1061A00000BF441C00D170BD814209D1904C2468CD
:1061B00028256C438D4D2D686419646A8C4D2C60C4
:1061C00028244443894D2D686419A3682824444336
:1061D000864D2D686419656A28244C43834E3668C1
:1061E000A419656228244C43804D2D686419606AA7
:1061F000441C0CD0282444437C4D2D686419A468A9
:10620000E51828244443794E3668A419A56000BFD8
:10621000C9E710B5112000F0F7FB10BD10B5142030
:1062200000F0F2FB10BD70B504467248006800280B
:1062300013D0704A216AE06912689047054600BF92
:106240002E46002E07D000BF6BA2FF2155313046ED
:10625000FEF752F800BF00BF02E0E169206A8847FC
:1062600070BDF8B562480068401C39D0002700F0C6
:1062700004FC04466C480168204600F001FC064618
:106280005B48056811E028206843584909684418AC
:10629000A068B04200D90AE0A068361AA068C71901
:1062A000656A2046FFF7BFFF00BF681CEBD100BF47
:1062B0005E4800785E490978884209D15C480078D8
:1062C000401CC0B25A490870022801D10020087051
:1062D00057480078800057490F50FFF79FFF00BFD5
:1062E000F8BD014651480078514A127890421DD0BD
:1062F0004E480078401C4D4A107010460078022825
:1063000001D100201070494800788000494A105897
:106310000860454A086812688018434A10601046B1
:1063200000680002000A1060012070470020086029
:1063300000BFFAE7FEB52E48006801903E4800789D
:1063400000903FE00098C0003C4909684418257857
:1063500034E01820684361680F18681CC5B2A07843
:10636000A84200D100253868022802D0032822D193
:106370000EE02821786848431C4909684618307E99
:10638000002804D07868FFF7F9FE0020307613E08B
:106390000CE01749096828225143144A12688818EA
:1063A00000210176124A416A116000BF104800685E
:1063B000401CEED100E000BF00BF00BF6078A842E3
:1063C000C7D100BF0098411EC9B200910028B9D1C1
:1063D00007480168019833E01CED00E000E100E0AF
:1063E00000150140401301400010014088200020AA
:1063F00094200020A82000202E2E5C2E2E5C2E2E15
:106400005C2E2E5C2E2E5C536F757263655C617022
:10641000705F636F6D6D6F6E5C6170705F74696DDE
:1064200065722E630000000098200020A420002048
:10643000A52000209C2000208D20002090200020FE
:10644000814201D00120FEBD0020FCE7F0B50346EB
:10645000002426E0FE4E366828277E43FD4F3F6825
:10646000F01986689E4203D98668F61A86601CE099
:1064700086689B1B86683419002686600676F44E73
:106480003568F34F466A3E604669002E08D00E1903
:106490003602360AC66046690661166846621560AD
:1064A00000BFEB480068401CD4D100BFF0BDFEB572
:1064B0000746E74800680290E7480078019069E0E5
:1064C0000198C000E549096845185CE0781C07D0D0
:1064D0003E4628207043DF4909684418676A23E074
:1064E0002978182359436A6850182978491C29705B
:1064F0002978AA78914201D1002129704668282183
:106500007143D44A12688C180168012902D1217E96
:10651000002900D037E08168E160C168216101692C
:1065200061614169216200BFCD49E0680968401A94
:106530000002000ACB49884208D2C949E0680968CC
:1065400000F09EFA21694018A06011E0C448E1689B
:10655000006800F095FA009021690098814204D902
:1065600021690098081AA06001E00020A06000BF27
:106570000020E060206101202076801E60623046AD
:10658000FFF795FD00BF781CA0D128786978884274
:106590009CD100BF0198411EC9B2019100288FD142
:1065A000AB4801680298814201D00120FEBD002065
:1065B000FCE7FEB50546A6480068401C34D0A44858
:1065C000006828214843A34909684018866800F0FC
:1065D00054FA0290A24804682146029800F050FA4A
:1065E000C01C0190681C01D1FFF736FD0198B04234
:1065F00001D2304600E0019804192402240A204602
:106600009949086000BF00F038FA0090029900989C
:1066100000F036FAC71C2046029900F031FA874292
:1066200001D9FFF7F6FD01E0FFF72BFDFEBDFEB53A
:106630000020C04301908A4804688548076868467E
:10664000FFF74FFE0546FFF775FE0646002D05D005
:1066500001AA21460098FFF7F9FE01260198FFF7ED
:1066600026FF002800D00126002E02D03846FFF772
:10667000A0FFFEBD4170704770B502460B465078D2
:10668000411C9078884200D100211078884201D1C5
:10669000002070BD196050781826704355682C187A
:1066A0002046F6E7FFB581B005460E461746E900DD
:1066B0006A4A126888186946FFF7DEFF0446002C14
:1066C00002D1042005B0F0BD01202060666000F01A
:1066D000D4F9A060E760049820610A986061E9003D
:1066E0005E4A126888180099FFF7C4FFFFF796FD0D
:1066F0000020E7E7F8B504460E46E100574A126865
:1067000088186946FFF7B8FF0546002D01D104201F
:10671000F8BD022028606E60E100504A12688818B7
:106720000099FFF7A7FFFFF779FD0020F0E738B5E4
:106730000446E100494A126888186946FFF79CFF41
:106740000546002D01D1042038BD03202860001F1C
:106750006860E100414A126888180099FFF78AFFD3
:10676000FFF75CFD0020EFE710B500203F4908600F
:1067700000213E4841608160C16000203B494039B2
:1067800008604860FFF76DFD10BD10B5FFF74FFFC3
:1067900010BDFFB581B00E4617461C462046810746
:1067A000890F01D1012100E00021002902D1072039
:1067B00005B0F0BD002C01D10720F9E7FFF761FC1F
:1067C0002B490A9808602B4806702248046000256F
:1067D0000CE00021282068431E4A1268115028202E
:1067E00068431C4A1268801801766D1CB542F0DBC4
:1067F00028207043041903201749087017480460C3
:10680000183400250CE0E900144A126888180021A9
:106810000170417087704460182179430C196D1C18
:10682000032DF0DB0020C043094908600020124915
:10683000087012490870142000F0EDF803211420AC
:10684000FFF7CAFB142000F0D8F8019818E0000008
:1068500094200020882000208D20002090200020FF
:1068600098200020FFFF7F004015014040110140AB
:10687000A82000208C200020A4200020A52000209B
:10688000FFF7E1FB00F0F9F88049086000208FE78E
:1068900070B503460C467E480068002801D10820E8
:1068A00070BD002A01D10720FAE7002B01D1072093
:1068B000F6E700211CE028204843754D2D68285834
:1068C000002814D1012528204843714E36683550E0
:1068D000282048436E4D2D684019446028204843C5
:1068E0006B4D2D684019C26119600020D8E7491C22
:1068F000684800788142DEDB0420D1E710B500F063
:1069000092F8012802D0032804D101E0002403E01A
:10691000012401E0022400BF00BF204610BDFEB5E7
:1069200004460D4616465A480068002801D1082042
:10693000FEBD58480078844201D2052D01D20720BF
:10694000F6E728206043524909680858012801D019
:106950000820EDE7282060434D4909684018406849
:10696000012801D1284600E000200746FFF7C6FFB6
:106970003B462A46214600960190FFF793FED7E753
:1069800070B5044642480068002801D1082070BD57
:1069900040480078844201D30720F8E7282060436C
:1069A0003B4909680858012801D00820EFE7FFF7A4
:1069B000A5FF05462146FFF79DFEE8E710B53448E0
:1069C0000068002801D1082010BDFFF797FF04469A
:1069D000FFF7ADFEF8E710B5044600F04EF8206072
:1069E000002010BD70B505460E46144631462846B7
:1069F00000F046F82060002070BDC206D20E0121D2
:106A00009140254A11607047C206D20E0121914083
:106A1000224A11607047C206D20E012191401F4ADE
:106A200080321160704710B51D484068C105C90D1E
:106A3000002920D00A46103A104600280DDA184BDB
:106A40001C330407240F083CA408A4001B59840726
:106A5000E40EE3401B069B0F0BE00F4B03242402C4
:106A60001B198408A4001B598407E40EE3401B068D
:106A70009B0FD8B210BD0420FCE70A48406870475D
:106A80000246501A0002000A7047000098200020B9
:106A9000882000208C20002000E100E000E200E0DF
:106AA00000ED00E00015014070B506460C461546A5
:106AB00029462046FDF72EFC70BDF8B559480078F0
:106AC000002800D1F8BD58480068002801D10120F5
:106AD00000E00020054655480068002801D101204B
:106AE00000E00020064600BF002D14D168464EDFAE
:106AF0000446052C01D101250CE0002C06D000BF76
:106B00004BA269212046FDF7F7FB03E046490098B8
:106B10000968884700BF002E1AD1534800880090AA
:106B200069465248006860DF0446052C01D1012601
:106B30000DE0002C06D000BF3DA280212046FDF7CD
:106B4000DBFB04E04948006838490968884700BF12
:106B5000002D02D0002E00D000E0C5E700BF00BF2E
:106B6000B0E7FFB581B00C4616461F46002C02D197
:106B7000072005B0F0BD20468107890F01D1012112
:106B800000E00021002901D10720F2E73748046026
:106B900035480680364807603649019810DF0546BB
:106BA000002D01D02846E4E701201E490870162078
:106BB00023DFDEE710B511DF0446002C01D00120F1
:106BC00000E0002017490870204610BD014600294A
:106BD00001D10E207047154801600020FAE70146F8
:106BE000002901D10E2070470F4801600020FAE70C
:106BF00070B51F480068002811D01D480068804704
:106C0000044600BF2546002D07D000BF08A2FF2183
:106C100033312846FDF770FB00BF00BF01E0FFF7EE
:106C20004CFF70BDAC200020C0200020BC20002004
:106C30002E2E5C2E2E5C2E2E5C2E2E5C2E2E5C5369
:106C40006F757263655C73645F636F6D6D6F6E5CAF
:106C5000736F66746465766963655F68616E646CA2
:106C600065722E6300000000B8200020B4200020D0
:106C7000B0200020A96A010001464888B74A12885E
:106C8000904206DB4888B54A5288904201DC0120D8
:106C900070470020FCE738B50546B1480088B14987
:106CA00088423BD0B0480078401CAF490870AF48DC
:106CB000007B097888420FDBA849A948008875DF66
:106CC0000446002C07D0A9488069002803D0A748B3
:106CD00081692046884721E00020A3490870A34825
:106CE000007C00280FD03B219D48008876DF0446B9
:106CF000002C07D09D488069002803D09B488169FB
:106D00002046884700BF99484069002806D00020E7
:106D10000090964841696846884700BF38BD70B505
:106D200005461C2229469148FDF72EFA002090497D
:106D30000870286800280BD008228848296801F0CC
:106D400051FD86487ADF0446002C08D0204670BDED
:106D500082487BDF0446002C01D02046F7E7002064
:106D6000C0437F49088000207F490870814A002184
:106D70008148FFF78DFDEAE710B57F480068FFF70F
:106D8000FFFD10BD38B57D48FFF776FF002829D1FB
:106D90007748007800280AD074484069002820D03D
:106DA00000200090714841696846884719E06E48A4
:106DB0000078002802D16D48456801E06B4885687D
:106DC000002229466C480068FFF7A9FD0446002C04
:106DD00007D066488069002803D06448816920464E
:106DE00088470AE061484069002806D001200090E9
:106DF0005E4841696846884700BF00205C490870CA
:106E000038BD10B50446A08855490880082221469F
:106E10000E315A4801F0E6FC0020534908705348EF
:106E2000C089002801D1FFF7ADFF10BD70B5054640
:106E30000020C0434A49088000204B4908704E4852
:106E40000068FFF79DFD0446002C07D04748806985
:106E5000002803D0454881692046884770BD70B539
:106E60000546AC1D20884149C989884220D1208B24
:106E700002281DD100BF00BFA17EE27E1202114395
:106E80000846C107C90F002902D0FFF77BFF0FE0BA
:106E900039480068FFF774FD0646002E07D03348D6
:106EA0008069002803D0314881693046884700BF97
:106EB00070BD10B504460822A11D304801F092FCB7
:106EC000FFF760FF10BD10B504462088102806D0DB
:106ED000112808D012280ED0502810D107E02046E3
:106EE000FFF78FFF0CE02046FFF7A0FF08E02046E9
:106EF000FFF7B5FF04E02046FFF7DBFF00E000BF2F
:106F000000BF10BD38B5044608222146134801F0E1
:106F100069FC12487ADF0546002D1CD11748FFF79F
:106F2000ABFE00280BD10120114908700B490C4819
:106F3000008875DF054601200B4908700BE00B48FF
:106F40004069002806D00120009008484169684641
:106F5000884700BF0025284638BD0000C620002015
:106F6000D0200020FFFF0000CE2000209C24002025
:106F7000C4200020976C0100DC200020D2200020DB
:106F80000246100C0004F84B984202D10A800020FF
:106F90007047501C01D10520FAE70B20F8E77CB5BB
:106FA0000546F24800780A2801DB04207CBDEF4842
:106FB0000078002806D100221146104601F0A0FBFF
:106FC000EB4908806A46E9480178EA4801F046FA48
:106FD0000446002C01D02046E8E704234C22294631
:106FE000684601F07FFA0446002C01D02046DDE718
:106FF000DF4A4C21284601F083FBDD490880084622
:107000000088D9490843D94909788900DA4A50509B
:10701000D64800788000811800230422684601F0D9
:1070200061FA0446002C01D02046BFE7CF48007823
:10703000401CCE4908700020B8E77CB50546CF4813
:1070400000780A2801DB04207CBDCC4800780028A9
:1070500006D100221146104601F052FBC8490880B3
:107060006A46C6480178C74801F0F8F90446002C82
:1070700001D02046E8E704231C222946684601F097
:1070800031FA0446002C01D02046DDE7BC4A1C2121
:10709000284601F035FBBA49088008460088B24905
:1070A0000843B64909788900B74A5050B348007878
:1070B0008000811800230422684601F013FA044678
:1070C000002C01D02046BFE7AC480078401CAB49FB
:1070D00008700020B8E77FB50546A448007800286E
:1070E00006D100221146104601F00AFBA049088093
:1070F00002AA9E4801789F4801F0B0F90446002C8E
:1071000002D0204604B070BD0023042202A901A8C9
:1071100001F046FA0446002C01D02046F2E7694609
:107120000198FFF72DFF0446002C01D02046E9E727
:1071300004234C2202A9284601F032FA0446002C0E
:1071400001D02046DEE78A4A4C21284601F0D8FAD1
:10715000874908800846008869460988884206D120
:1071600082480078401C814908700020CAE70B2043
:10717000C8E77FB5054681480078002806D100227F
:107180001146104601F0BCFA7D49088002AA7B48EE
:1071900001787C4801F062F90446002C02D02046B8
:1071A00004B070BD0023042202A901A801F0F8F97F
:1071B0000446002C01D02046F2E769460198FFF70B
:1071C000DFFE0446002C01D02046E9E704231C2200
:1071D00002A9284601F0E4F90446002C01D020461B
:1071E000DEE7674A1C21284601F08AFA64490880D4
:1071F0000846008869460988884206D15F480078B9
:10720000401C5E4908700020CAE70B20C8E710B593
:107210000A21584801F022FA0446002C04D10A2120
:10722000584801F01BFA0446204610BD38B500222C
:107230001146104601F064FA0090002409E068212C
:107240006143524A88186A464C2101F059FA00906D
:10725000641C4F4800788442F1DB6846008844494A
:107260000988884201D0012038BD0020FCE738B5EC
:1072700000221146104601F043FA009000240BE072
:1072800068216143414A891808464C306A461C21EE
:1072900001F036FA0090641C3D4800788442EFDB30
:1072A0006846008836490988884201D0012038BDE7
:1072B0000020FCE770B505463648406E002808D02F
:1072C0003448406E142801D9032070BD314C50342D
:1072D00000E000242F484C30008B82B221462E481B
:1072E0000088A9DFF1E710B5002100202B4A1070BB
:1072F0002B4A107032E068224A43244BD018427A5D
:107300005207D20F12D0027852B2254B1B78DB0005
:10731000244CE25402461E32214B1B78DB001B1921
:107320005A601F4A1278521C1D4B1A704222125C7E
:10733000022A12D0027852B2184B1B78DB001A4C8A
:10734000E25402464232154B1B78DB001B195A608F
:10735000124A1278521C114B1A70491C0C480078C2
:107360008142C8DB10BD000000002453FC20002037
:10737000E8200020EC200020AC280020FD20002088
:10738000EA200020F4200020C828002064250020E6
:10739000E4200020FC240020E2200020E520002042
:1073A000E6200020742800203C2800207CB50546FB
:1073B000FE480078072801DB04207CBD32222946E4
:1073C000FB4801F00FFAE988F948001FC187002146
:1073D0004166F6480078F649091F0860F3490978C4
:1073E000F24A1278521CF14B1A7068225143F14A4A
:1073F00088186822EE49091FFCF7C6FEFFF773FFE5
:107400000120ED49087000221146EC480088A9DFF0
:107410000446002C01D02046CFE7E548001FFFF7C7
:10742000BEFD0446042C15D1E5484068002811D063
:1074300004200090DE48001F007841B268460171C8
:10744000DB48001FC18F6846C180DD48416868463F
:10745000884703E0002C01D02046AEE7D8484068BA
:10746000002811D000200090D148001F007841B2C0
:1074700068460171CE48001FC18F6846C180D04860
:1074800041686846884700BF002096E770B5C84845
:10749000001F0468002C23DBC448007884421FDAF4
:1074A000C5480078002808D068216143C14A88187F
:1074B0004C22BF49091FFCF767FEC248007800282C
:1074C0000AD068216143BB4A891808464C301C2207
:1074D000B7494831FCF758FEFFF705FF002500E0EB
:1074E0000325284670BD70B50546002412E06820CB
:1074F0006043B0494018C08FA8420AD16820604359
:107500000A4681186822AA48001FFCF73DFE0020A9
:1075100070BD641CA54800788442E8DB0520F7E7CD
:1075200070B594B00020A14908702FE001A8FFF7C2
:10753000D2FD0546052D00D12CE0002D02D02846B5
:1075400014B070BD019E99480078864201DD0B2081
:10755000F6E768217143974A88184C2201A9FCF785
:1075600013FE9248007886420FD1002168207043B4
:10757000904A80184166491E682070438018C16493
:107580008A480078401C8949087000BF8748007805
:107590000728CBDB00BF00241DE00DA8FFF7E9FDA5
:1075A0000546052D00D11AE0002D01D02846C7E779
:1075B0007E4909780D98884201DD0B20C0E76822DA
:1075C0000D9951437B4A891808464C301C220DA95D
:1075D000FCF7DAFD641C754800788442DDDB00BFEF
:1075E0007248047810E00021C94368206043714A62
:1075F000115000216820604380184166491E6820B0
:1076000060438018C164641C072CECDBFFF76BFE41
:10761000002095E77CB50446A088684908800020D2
:10762000C0436349091F08600722A11D60483E301E
:1076300001F0D8F800215E48001F4166607BC0075A
:10764000C00F1AD0607B4508072D04DAE8005E49B8
:107650000856072804DB5A488168032088470BE056
:10766000E800594A105668225043524A811868224D
:107670004F48001FFCF788FD21E0002519E0E800D5
:10768000524940184668062249493F31701C01F0B2
:1076900059F800280CD1E8004C4A10566822504393
:1076A000444A811868224248001FFCF76DFD04E03F
:1076B0006D1C474800788542E1DB00BF00BF3C48B5
:1076C000001F0068401C1AD000203B4908703D494B
:1076D00008703B484068002811D0012000903448D1
:1076E000001F007841B2684601713148001FC18F08
:1076F0006846C180324841686846884700BF7CBD03
:1077000070B505462A48001F0068401C0AD0314861
:107710000078C007C00F05D02E480078022108402D
:10772000400806D00022114624480088A9DF0446FC
:1077300009E01F48001FFFF7BDFD0446002C02D1E1
:10774000012020490870002C03D01D488168204684
:10775000884770BD7CB5044632222146144801F0AA
:1077600041F8E1881248001FC18701460968682274
:107770005143104A8818682101F0DEF80C49091FAE
:107780000968682251430B4A881868220849091F72
:10779000FCF7FAFC0648001FFFF701FC0546042D24
:1077A0002AD107484068002826D015E0E4200020B0
:1077B0000025002064250020FF200020E22000207A
:1077C000F024002000210020742800203C28002004
:1077D000E5200020FE20002004200090FB480078D7
:1077E00041B268460171F948C18F6846C180F848C6
:1077F00041686846884705E0002D03D0F448816859
:1078000028468847F248406800280FD0032000909F
:10781000EE48007841B268460171EC48C18F684675
:10782000C180EB4841686846884700BF7CBD70B5A1
:1078300004462078002800D070BDE6480078C007D4
:10784000C00F00D1F8E7E1480068401C12D1E08881
:10785000FFF749FE0546002D01D10F2503E0204624
:10786000FFF7A4FD0546002D03D0D94881682846BE
:10787000884705E00120D84908702046FFF76AFFD5
:1078800000BFD9E770B50546E889FFF72CFE04462E
:10789000002C10D10120D04908700022CB490A31B8
:1078A000CE48008881DF0446002C1ED0C84881687D
:1078B0002046884719E0052C17D10C22A91DC34882
:1078C000363000F08FFF00221146C448008881DF67
:1078D0000446002C03D0BE48816820468847002219
:1078E0001146BE480088A9DF0446002C03D0B848E2
:1078F00081682046884770BDFEB50446207806079B
:10790000360F20780709012E01D1012F03DC022E4A
:107910002CD1002F2AD000BFAE48007801210843A7
:10792000AC49087000BFA948FFF7C4FC0546002D0C
:1079300004D0A74881682846884702E00120A8496A
:107940000870A348406800280FD0022000909F488C
:10795000007841B2684601719C48C18F6846C18079
:107960009B4841686846884700BF00BFFEBD10B510
:107970000446A078C007C00F12D000BF9548007819
:10798000022108439349087000BF90480068401CDA
:1079900006D000218D4841661421503000F0CCFF04
:1079A00010BD10B504468F480078002803D18848E0
:1079B0008168082088472088142820D006DC1028F9
:1079C0000BD011280DD0132825D11CE0172812D078
:1079D00018281CD052281ED109E02046FFF71AFEB5
:1079E0001AE000BF00207B49087000BF14E0204669
:1079F000FFF786FE10E0A01DFFF719FF0CE0204600
:107A0000FFF740FF08E0A01DFFF7B1FF04E0A01D55
:107A1000FFF772FF00E000BF00BF10BD38B500BF28
:107A200070480078002801D1082038BD00BF6748A1
:107A30000068401C1CD0142000906A4663495031F5
:107A400066480088AADF0446002C01D02046ECE7F7
:107A50005E4800685D49C864684601885B484166C5
:107A6000FFF714FD0446002C01D02046DDE700BFDF
:107A7000FFF7DCFB00281DD00A215B4800F0EEFD7B
:107A80000446002C01D02046CFE70020574908705B
:107A900000250BE068216943554A8818FFF77FFAF3
:107AA0000446002C01D02046BFE76D1C51480078E9
:107AB0008542EFDBFFF7DBFB00281FD00A214E4891
:107AC00000F0CCFD0446002C01D02046ADE700209C
:107AD0004A49087000250DE068216943444A891825
:107AE00008464C30FFF7A9FA0446002C01D0204686
:107AF0009BE76D1C3F4800788542EDDB0020C043CA
:107B00003649088031490860C86400212F48416621
:107B10000020314908703249087000BF85E738B548
:107B20002A48406E002826D1142000906A46274932
:107B300050312A480088AADF0446002C01D0204694
:107B400038BD224800682149C864684601881F483A
:107B500041660146096868225143254A891808464A
:107B60004C301C2219494C31FCF70EFB17484C30A5
:107B7000FFF763FAE4E70820E2E710B500BF194811
:107B80000078002801D1082010BD00BF002019494D
:107B900008701649087019490870FFF738FBF3E7B9
:107BA00070B504460D46601C0DD012480078844222
:107BB00009DA002D07D0682060430D494018403095
:107BC000807802281CD1072070BD0000FC24002012
:107BD000F0240020FE200020FF200020E2200020D2
:107BE00000210020E0200020EC200020FC200020CC
:107BF00064250020E4200020F4200020FD20002047
:107C000068206043C54A8018014642310722284651
:107C100000F0E8FD002070BD10B50246002107E02D
:107C2000C800BF4BC01840688B00BE4CE050491CD8
:107C3000BD4800788142F3DB002107E0C800BB4B60
:107C4000C01840688B00BA4CE050491CB948007815
:107C50008142F3DBB74800781071B64800780028FD
:107C600001D0B34800E000201060AF4800781073E6
:107C7000AD480078002801D0AA4800E000209060BC
:107C8000002010BDF8B506460F461446069D002C90
:107C900003D0A948816820468847F8BD7CB50546D1
:107CA000A868002801D107207CBD5021684681804A
:107CB0000A21C180A1480090A149684600F025FB37
:107CC0000446002C01D02046EEE72020694688803B
:107CD0009C49684600F019FB0446002C01D0204660
:107CE000E2E7954829460EC90EC06821964800F083
:107CF00023FE0020C0439449086094490880002076
:107D000093490870934908709349087000BF9349DC
:107D1000087000BF8848807800281FD0FFF777FAE6
:107D20000446002C01D02046BEE700208849087098
:107D3000087810E00022D24368214143774B5A5023
:107D4000002268214143C9184A66521E68214143F6
:107D5000C918CA64401C0728ECDB06E0FFF7E0FB0B
:107D60000446002C01D020469EE701207C49087083
:107D7000002099E710B5024600BF79480078002836
:107D800001D1082010BD00BF002901D10E20F9E764
:107D900008886F4B1B78984201DA0C20F2E76C4898
:107DA00000780880002A01D10020EBE7002007E0DE
:107DB00068234343594C1B19DB8F44001353401C69
:107DC000634B1B789842F3DB0020DBE7F8B50746EE
:107DD00000BF63480078002801D10820F8BD00BF2B
:107DE0000026F64300240AE0682060434B4940180F
:107DF000C08FB84201D166B205E0601CC4B25448DD
:107E000000788442F0DB00BF701C01D10520E5E75B
:107E1000F4B226E0621C68235A43404BD118682212
:107E20006243D0186822FCF7AFF9682060433B49F1
:107E30000858401E68216143384A5050682060430A
:107E400011464018C06C411C09D06820604311469F
:107E50004018C06C401E682161438918C864601CCA
:107E6000C4B23B480078401EA042D3DC38490978B0
:107E7000491E68225143294A8818682100F05CFD98
:107E800033480078401E32490870FFF7C0F90546B4
:107E9000002D01D02846A1E700202E4908702E4968
:107EA000087000240CE0682161431C4A8818FFF721
:107EB00076F80546002D01D028468FE7601CC4B235
:107EC000234800788442EEDB00240EE06821614301
:107ED000124A891808464C30FFF7AFF80546002DC6
:107EE00001D028467AE7601CC4B219480078844261
:107EF000ECDBFFF7F8F9002070E7014600BF1848F7
:107F00000078002801D10820704700BF134800788E
:107F1000C007C00F08700020F6E7000064250020AD
:107F200074280020D4240020E62000203C280020D3
:107F3000B8240020E5200020F0240020857C0100EA
:107F4000EC200020F4200020FC240020E22000206F
:107F5000E4200020FC200020FD200020FE20002046
:107F6000E0200020002314214143FA4A53541421F5
:107F7000414389184B8002231421414389188B60A7
:107F80000023142141438918CB60142141438918EF
:107F90000B611421414389188B80704710B5002074
:107FA000ED490880EB49091F08704870887000246B
:107FB00003E02046FFF7D6FF641C1E2CF9D310BD4A
:107FC000F8B50F25E348001F007814214843E14924
:107FD0004418E06800902078042813D180060069D6
:107FE00081B2009800F0AAFCDB49098846183046A7
:107FF00050DF0546002D04D1D7480088401CD649E3
:1080000008802BE02078022828D12769D2480088F0
:108010003F18A088D0490988411800980818009096
:108020006088CD490988461A01208002864205D21F
:10803000B2083946009851DF054605E0FF220132BB
:108040003946009851DF0546002D06D1C248008808
:10805000012189024018C049088000BF002D03D1CA
:108060000120BC49091F88702846F8BDFFB581B0C2
:1080700005460E46174600240420B649091F897894
:1080800000293CD1B349091F4978002937D1B14AA9
:10809000121F11701146097814225143AD4A5554EC
:1080A000111F097814225143AA4A89180F61111F20
:1080B000097814225143A74A891873683268CB6043
:1080C0008A60A44A121F127814235A43A14BD21873
:1080D000049951801A1F127814235A439D4BD218C9
:1080E0000A999180191F4978491C1A1F5170FFF78E
:1080F00067FF002801D0112833D1002031E09549D5
:10810000091F49781E292CD09249091F0978914AE4
:10811000121F52788918CCB21E2C02DB21461E3960
:10812000CCB2142161438B4A555414216143891800
:108130000F6114216143891873683268CB608A60CB
:1081400014226243834BD218049951801422624353
:10815000D2180A999180191F4978491C1A1F517029
:10816000002005B0F0BDF8B504467A48001F00783D
:108170001421484377490D5C081F007814214843B7
:10818000744940188068000174490E58042D01D1CB
:10819000002007E06F48001F0078142148436D4914
:1081A000401840886B49091F0090097814225143F8
:1081B000684A89180B69111F097814225143654ACE
:1081C00089180846083022462946B047F8BD70B5E0
:1081D0006048001F0078142148435E4945186888AC
:1081E0005D490988884212DC5A49091F0878FFF75F
:1081F000B9FE0020584908805648001F4078401EAC
:108200005449091F487008460078401C0870002433
:108210005048001F4078002809D0FFF7D1FE0446DF
:10822000002C04D0112C02D02046FFF79CFF2046E2
:1082300070BD70B5054600264648001F80780128AD
:108240002AD100204349091F8870022D02D0032D36
:108250001FD11AE03F48001F0078142148433D49D0
:1082600044182078042804D160883B490988884252
:1082700002DC3046FFF777FFFFF7A9FF0646002E26
:1082800002D03046FFF76FFF04E00D20FFF76BFFD1
:1082900000E000BF00BF00BF70BD10B5FFF77EFE5D
:1082A00000202F4908802F484069401C08D0012237
:1082B0001207126991B22B4A506900F03FFB02E0AD
:1082C000012000074069801E01210907096989B260
:1082D00048432549086000201F49088000BF0DE081
:1082E000002102011D4B99500201D2181181020197
:1082F000D21891810201D2185181401C0228EFD37B
:1083000001201A490870002010BDF8B504460D463A
:1083100000BF16480078002801D10820F8BD00BF32
:10832000002C01D10E20F9E7002D01D10E20F5E738
:108330002068002801D10E20F0E7A088012109075C
:10834000096989B2884202DCA088102810DA072067
:10835000E4E70000E82800200C210020402B00204A
:108360000621002000100010082100200421002018
:10837000E08800281CD0DD484069401C08D001225C
:108380001207126991B2D94A506900F0D7FA02E097
:1083900001200007406901210907096989B24843A2
:1083A000E188A2885143D24A12688918884201D2D2
:1083B0000720B3E7CF480088022801D10420ADE7A9
:1083C000CC4800882860CA4800686860C9490988A4
:1083D0000901C94A891868684860C64909880901BD
:1083E00020685050A088C34909880901891808816C
:1083F000E088C04909880901891848810027A688B2
:10840000E1884E4300BF781C87B201200007006955
:1084100080B2B04205D201200007006980B2361A4E
:1084200000E0002601200007006980B2B049096819
:108430004018AF49086001200007006980B2B042CF
:10844000E1D9AC4800880001AB4940188781A948B0
:108450000088401CA749088000205FE73CB5034620
:1084600000BFA6480078002801D108203CBD00BF0D
:10847000002B01D10E20F9E7002A01D10E20F5E7EB
:108480001868022805D2186800019B4C2058002863
:1084900001D10720EAE75C68186801940090019C0C
:1084A00018680001944D4019008948432018019034
:1084B000009800012C4600194089009C2401641991
:1084C00024896043009C2401641964680019019C9C
:1084D000A04201D80720C9E7019C009854601060B1
:1084E0000020C3E7F8B504460D4616461F4600BFF8
:1084F00082480078002801D10820F8BD00BF002D77
:1085000001D10E20F9E7002C01D10E20F5E72068FB
:10851000022805D22068000177490858002801D1B7
:108520000720EAE720680001734940184089216864
:108530000901714A89180989484321680901891884
:10854000496840186168884201D80720D5E7002EA5
:1085500006D020680001684940180089B04201DA5D
:108560000720CAE7F01921680901634A89180989B7
:10857000884201DD0720C0E7284600F0AEF8002859
:1085800004D0E81900F0A9F8002801D11020B4E7C0
:1085900033462A46214602200097FFF767FDACE7E5
:1085A000F8B507460C4615461E4600BF53480078EE
:1085B000002801D10820F8BD00BF002C01D10E20F9
:1085C000F9E7002F01D10E20F5E72068022805D237
:1085D0002068000148490858002801D10720EAE72F
:1085E0002068000144494018408921680901424A35
:1085F0008918098948432168090189184968401880
:108600006168884201D80720D5E7002D06D0206890
:108610000001394940180089A84201DA0720CAE759
:10862000A81921680901344A89180989884201DD9D
:108630000720C0E7384600F050F8002804D0B819E9
:1086400000F04BF8002801D11020B4E760688119D0
:108650002A46384600F0C6F80020ACE7F8B50446D4
:108660000F4600BF25480078002801D10820F8BD3A
:1086700000BF002C01D10E20F9E72068022805D2A6
:10868000206800011C490858002801D10720EEE7A6
:108690002068000118494018408921680901164ADC
:1086A00089180989484321680901891849684018CF
:1086B0006168884201D80720D9E7206800010E4987
:1086C0004018858900202B46024621460090042050
:1086D000FFF7CCFC06463046C9E701468807800F05
:1086E00001D1012070470020FCE7000000100010BD
:1086F0000821002006210020402B0020042100201A
:1087000070B503460C46002A01D10D4D00E01588D6
:108710002846002110E0051206023543A8B25D5C30
:10872000684005062D0F684005034540A8B20506C0
:108730002D0D6D006840491CA142ECD370BD0000B6
:10874000FFFF0000034610B50B439B070FD1042A1F
:108750000DD308C810C9121FA342F8D018BA21BA05
:10876000884201D9012010BD0020C04310BD002A5D
:1087700003D0D30703D0521C07E0002010BD0378BC
:108780000C78401C491C1B1B07D103780C78401C3B
:10879000491C1B1B01D1921EF1D1184610BD0000CF
:1087A00030B5441C03E00178401C00290DD081073E
:1087B000F9D10B4BDD0104C8D11A91432940FAD0FD
:1087C000001B0A0603D0C01E30BD001B30BD0A04CA
:1087D00001D0801E30BD0902FCD0401E30BD00001B
:1087E00001010101F8B5042A2CD3830712D00B78BC
:1087F000491C0370401C521E83070BD00B78491C88
:108800000370401C521E830704D00B78491C037070
:10881000401C521E8B079B0F05D0C91ADF00202376
:10882000DE1B08C90AE0FBF7AFFCF8BD1D4608C90E
:10883000FD401C46B4402C4310C0121F042AF5D240
:10884000F308C91A521EF0D40B78491C0370401C5F
:10885000521EEAD40B78491C0370401C521EE4D40B
:1088600009780170F8BD431A70B593421BD289187C
:10887000801804E0491E521E0B78401E03709307B7
:10888000F8D106E010390B461038103A78CB78C092
:108890001038102AF6D203E0001F091F0B6803608E
:1088A000121FF9D570BDFBF76FFC70BDF8B5064619
:1088B00014460843800707D0751AA54219D2081933
:1088C000102D13D2311907E03046FFF7CCFFF8BD69
:1088D000401E491E02780A70641EF9D2F8BD471B7B
:1088E0002A463946FFF77EFF641B3846A542F6D379
:1088F000011B22463046FFF775FFF8BD01E004C0BA
:10890000091F0429FBD28B0701D50280801CC907EF
:1089100000D00270704700290BD0C30702D002704C
:10892000401C491E022904D3830702D50280801C03
:10893000891EE3E70022EEE70022DFE700220309B9
:108940008B422CD3030A8B4211D300239C464EE06A
:1089500003460B433CD4002243088B4231D3030926
:108960008B421CD3030A8B4201D394463FE0C309D8
:108970008B4201D3CB01C01A524183098B4201D3F0
:108980008B01C01A524143098B4201D34B01C01ADB
:10899000524103098B4201D30B01C01A5241C30853
:1089A0008B4201D3CB00C01A524183088B4201D3C2
:1089B0008B00C01A524143088B4201D34B00C01AAE
:1089C0005241411A00D201465241104670475DE0C3
:1089D000CA0F00D04942031000D340425340002246
:1089E0009C4603098B422DD3030A8B4212D3FC22EF
:1089F000890112BA030A8B420CD3890192118B426E
:108A000008D3890192118B4204D389013AD0921183
:108A100000E08909C3098B4201D3CB01C01A52413E
:108A200083098B4201D38B01C01A524143098B4207
:108A300001D34B01C01A524103098B4201D30B01F0
:108A4000C01A5241C3088B4201D3CB00C01A524115
:108A500083088B4201D38B00C01A5241D9D24308FC
:108A60008B4201D34B00C01A5241411A00D2014639
:108A7000634652415B10104601D34042002B00D5A3
:108A80004942704763465B1000D3404201B5002065
:108A9000C046C04602BD704770477047754600F03B
:108AA00023F8AE46050069465346C008C000854617
:108AB00018B020B5FBF794FB60BC00274908B64608
:108AC0000026C0C5C0C5C0C5C0C5C0C5C0C5C0C5DD
:108AD000C0C5403D49008D4670470446C046C0466B
:108AE0002046FBF73AFB000000487047602B00204F
:108AF00001491820ABBEFEE72600020070470000C7
:108B00000D1801000F1801000A1801002C8B01003C
:108B10000020002010010000044101003C8C0100F5
:108B200010210020B01A0000204101000024F400B0
:108B3000FFFF010000000000000000000000000036
:108B40000000000000000000000000000000000025
:108B50000000000000000000000000000000000015
:108B60000000000000000000000000000000000005
:108B700000000000000000000000000000000000F5
:108B800000000000000000000000000000000000E5
:108B900000000000000000000000000000000000D5
:108BA00000000000000000000000000000000000C5
:108BB00000000000000000000000000000000000B5
:108BC00000000000000000000000000000000000A5
:108BD0000000000000000000000000000000000095
:108BE0000000000000000000000000000000000085
:108BF0000000000000000000000000000000000075
:108C00000000000000000000000000000000000064
:108C10000000000000000000000000000000000054
:108C20000000000000000000000000000000000044
:0C8C300000000000000000000000000038
:04000005000140C1F5
:00000001FF
