:020000040001F9
:10400000C03C0020C5410100D7410100D941010059
:1040100000000000000000000000000000000000A0
:10402000000000000000000000000000DB41010073
:104030000000000000000000DD410100DF41010040
:10404000E1410100E1410100E1410100E1410100E4
:10405000E141010000000000E1410100E1410100F7
:10406000E1410100E1410100E1410100E1410100C4
:10407000E1410100E1410100E1410100E1410100B4
:10408000E1410100555F0100E1410100E141010012
:104090006B5F0100E14101009F650100E14101000A
:1040A000E1410100E14101000000000000000000CA
:1040B0000000000000000000000000000000000000
:1040C00000F002F800F032F80CA030C808382418CC
:1040D0002D18A246671EAB4654465D46AC4201D140
:1040E00000F024F87E460F3E0FCCB6460126334240
:1040F00000D0FB1AA246AB4633431847AC3B000046
:10410000CC3B00000023002400250026103A01D3F8
:1041100078C1FBD8520700D330C100D50B6070477F
:104120001FB5C046C0461FBD10B510BD03F028FD29
:104130001146FFF7F5FF00F041FD03F040FD03B429
:10414000FFF7F2FF03BC03F045FD0000401E00BF77
:1041500000BF00BF00BF00BF00BF00BF00BF00BF67
:1041600000BF00BF00BFF1D170470000401E00BF7C
:1041700000BF00BF00BF00BF00BF00BF00BF00BF47
:1041800000BF00BF00BFF1D17047000070B5054609
:104190000C46164602E00FCC0FC5103E102EFAD288
:1041A000082E02D303CC03C5083E042E07D301CC4E
:1041B00001C5361F03E021782970641C6D1C761E32
:1041C000F9D270BD0A4802680F210A43026009480B
:1041D000804709480047FEE7FEE7FEE7FEE7FEE707
:1041E000FEE7000005480649064A074B70470000F5
:1041F0002405004015420100C1400100C02C0020F0
:10420000C03C0020C0340020C03400202349224894
:104210000860704710B500F01DF8002805D021494E
:104220001F484860C813204988612048018CC9B2E2
:1042300001290ED1818C09070BD1018D0906090FC7
:10424000042906D1808D0006000F02D118490120F3
:10425000886010BD1548018CC9B2012917D1818C25
:10426000090714D1018D09060A0F03D1828D1206A8
:10427000120F0ED0090F012903D1828D1206120FE1
:1042800007D0032903D1808D0006000F01D0002044
:1042900070470120704700000024F4000020002037
:1042A000DFFF07C000050040006C0040C00F00F0B9
:1042B00000060040FEB5FC48016802910021016043
:1042C000FA48C16B0191FA49C163F848403002686D
:1042D000009201600120F74C0004A0604510A56029
:1042E0000120FFF733FF2069C00302D520690004D5
:1042F0000CD400261127E5600120FFF727FFA560F9
:104300000120FFF723FF2069C00301D5012601E04A
:104310007F1EF0D2E5490198C863E4490098403116
:104320000860E149029808603046FEBDE048DF4978
:10433000401EC863DD4940310860DF4900208860C5
:10434000C861D9480F2181601021C160CD21C90405
:104350004162D94AD94938320A61D74AE43A4A61B6
:1043600001228A6005210160A4E7FFB5012581B023
:104370001F4614460646002A15D0FFF79BFF00286B
:1043800011D0C949700880318860F00705D0E1B2CA
:104390003A46029800F09EFC04E0E1B23A460298E8
:1043A00000F064FC0546284605B0F0BD38B5C4A051
:1043B00000680090012302226946B620FFF7D5FF6E
:1043C0002C2168460170012444702346022269466C
:1043D000B620FFF7CAFF2D21684601700025457001
:1043E000012302226946B620FFF7BFFF2E2168464F
:1043F00001704570012302226946B620FFF7B5FF20
:104400002F21684601704470012302226946B620BC
:10441000FFF7ABFF30216846017044700123022290
:104420006946B620FFF7A1FF312168460170FF21E0
:104430004170012302226946B620FFF796FF32241D
:1044400068460221047041700A4601236946B6207D
:10445000FFF78BFF49216846017044700123022257
:104460006946B620FFF781FF4A21684601700F2593
:104470004570012302226946B620FFF776FF4B21E3
:10448000684601704470012302226946B620FFF796
:104490006CFF4C2168460170457001230222694679
:1044A000B620FFF762FF4D2168460170447001237A
:1044B00002226946B620FFF758FF4E216846017078
:1044C0004570012302226946B620FFF74EFF4F21B7
:1044D000684601704470012302226946B620FFF746
:1044E00044FF50216846017045700123022269464D
:1044F000B620FFF73AFF5D21684601700421417044
:10450000012302226946B620FFF72FFF5E2168468D
:10451000017008214170012302226946B620FFF78D
:1045200024FF38BDF8B50446FFF7C4FE00282AD0A2
:104530005D493D208031886011225B4F614B4020F6
:10454000F8616149012088605B490025CE69002E31
:1045500002D0002B02D007E05B1EF7D14D605A4E0F
:1045600070614E68002EFCD0521E1206120ECD61F4
:1045700003D02678641CFE61E8E74D60524A506122
:1045800048680028FCD0F8BD10B501244F48FFF75B
:10459000C9FF641CE4B2412CF8D310BD1CB504461D
:1045A0004BA103C9019100900123072269467A209B
:1045B000FFF7DBFE012C04D0022C3BD0032C71D082
:1045C000DEE04248FFF7AEFF4048FFF7ABFF3F4851
:1045D000FFF7A8FF3D48FFF7A5FF3C481030FFF765
:1045E000A1FF3A482030FFF79DFF3848FFF79AFFB8
:1045F0003648FFF797FF35483030FFF793FF3348D1
:104600004030FFF78FFF31485030FFF78BFF2F48C6
:104610006030FFF787FF2D487030FFF783FF2B488E
:104620008030FFF77FFF29489030FFF77BFF274856
:10463000A03089E02548FFF775FF2448FFF772FF97
:104640002248FFF76FFF2148FFF76CFF1F4810302B
:10465000FFF768FF1D482030FFF764FF1B48FFF796
:1046600061FF1A48FFF75EFF18483030FFF75AFF26
:1046700016484030FFF756FF1448D030FFF752FF7E
:104680001248E030FFF74EFF10487030FFF74AFF46
:104690000E488030FFF746FF0C48F030FFF742FF2E
:1046A0000D4851E01AE000000045004000070050AE
:1046B0000D060000000500500041004000F50140DB
:1046C0002B01000010270000004000403C2000208B
:1046D0000020000021205F003C210020F748FFF768
:1046E00021FFF648FFF71EFFF448FFF71BFFF348D2
:1046F000FFF718FFF1481030FFF714FFEF482030A4
:10470000FFF710FFED48FFF70DFFEC48FFF70AFF3A
:10471000EA483030FFF706FFE8484030FFF702FF75
:10472000E6486030FFF7FEFEE448FFF7FBFEE34893
:104730007030FFF7F7FEE1488030FFF7F3FEDF4807
:10474000A030FFF7EFFEDD48FFF7ECFEDB48FFF798
:10475000E9FEDA48B030FFF7E5FED848FFF7E2FEA1
:10476000D648C030FFF7DEFED448FFF7DBFED34863
:10477000FFF7D8FED148FFF7D5FED048FFF7D2FEAD
:104780000124CE48FFF7CEFE641CE4B2092CF8D316
:104790001CBDBFF34F8FCB49C948C860BFF34F8FD3
:1047A000FEE7BFF34F8FC749C548C860BFF34F8FBF
:1047B000FEE710B5D421C44800F0A2FE00280CD0BA
:1047C00008280AD0C149884207D0C149884204D08C
:1047D0007121C0A2C900FFF7DCFF10BDBA49B7487C
:1047E00010B57831103801F0A4FAB44C81B2383CDD
:1047F0006068401C6060B448183000F0A4FF0028D6
:104800000BD0082809D0B149884206D0B049884267
:1048100003D0B0A2B249FFF7BCFF0321606803F0E8
:10482000FFF8002901D0012000E00020207010BD19
:10483000A24810B53838007800280AD0A2499F480D
:104840008831083801F075FA81B29F48183000F0BD
:10485000A3FF10BD994810B5383841780122514066
:1048600041709948183000F0BFFF10BD08B5002016
:1048700005229C4B1146009001F09DFB002803D0BF
:104880003F2194A209012EE08C48974A012130383B
:1048900001F0E3FB002803D091498EA2433122E0CE
:1048A0008648924A01212C3801F0D7FB002803D01A
:1048B0008B4988A2483116E080488D4A012128386A
:1048C00001F0CBFB002803D0012182A289020AE07B
:1048D0007A48884A0121243801F0BFFB002804D01F
:1048E0007F497CA25231FFF754FF08BD30B59BB021
:1048F000032118A80172142110A803F08FF80024D6
:10490000012510A8109405711AA81290601C0107C7
:10491000090F103110A8017344738473601C0107E0
:10492000090F103110A8C1730020014610A80174AE
:1049300001466548183000F0DBFE002803D06849C6
:1049400064A2C43140E0142115A803F067F80120E7
:104950000146103118A8417001200146103118A8F5
:1049600081700020014618A8C17001200146103155
:1049700018A8017110A815940576642118A8179439
:10498000017015A9504800F09FFD002803D054493C
:1049900050A2D63118E04021684603F03FF856A1F6
:1049A000684601F0B1F901200146103108A80177ED
:1049B0000020014608A84177684600F00DFC002859
:1049C00004D0474943A2E131FFF7E3FE1BB030BDFD
:1049D00010B5006800280AD138483B213838408893
:1049E00076DF002803D03BA24649FFF7D2FE10BD78
:1049F000444938A20B31FFF7CCFE10B5044602F053
:104A00000DF931482146183000F0B2FD21462E48FC
:104A100000F09CFC204601F073FE204600F0A2FA54
:104A200010BD10B502F024FD10BD364929A2993100
:104A3000FFF7AFFE08B500210091002801D0A720A4
:104A400000E0A62069464870012302227A20FFF781
:104A50008CFC08BD70B58EB034222B496846FFF738
:104A600095FB0124294DA403AC607D26F600304659
:104A7000FFF76CFBEC603046FFF768FBAC6064202E
:104A8000FFF764FB0123332269467A20FFF76DFCB0
:104A90000120FFF7CFFFFFF777FD0EB070BD7FB5A8
:104AA0001BA53CCD6E463CC66A465071517201232F
:104AB000102269467A20FFF758FC7FBD3C20002079
:104AC0000400FA0500ED00E004250020033000009A
:104AD000013400002E2E5C6D61696E2E63000000B3
:104AE000B303000010220020B3470100DD4701009E
:104AF0003148010055480100434F4F4C445544454F
:104B000053000000E6040000447C01000005005052
:104B100000260000000000000000000000FF002F41
:104B20007FB5F8A53CCD6E463CC66A4650715172C1
:104B30000123102269467A20FFF717FCBDE730B544
:104B400087B00C4605461822F2496846FFF71EFB5F
:104B50006846C572C4730123162269467A20FFF79E
:104B600004FC07B030BD30B50C46EA4987B00546B5
:104B7000182218316846FFF709FB6846C572C473EE
:104B80000123162269467A20FFF7EFFBE9E708B513
:104B9000E1A0006800900123022269467A20FFF715
:104BA000E4FB08BD08B5DDA109680091694688707D
:104BB000012303227A20FFF7D8FB08BDD94A88B029
:104BC000D74B5363FF21D7480D314038C162816212
:104BD000016241624162012151609160816313630E
:104BE000FFF7A4FBFFF736FFFFF7E0FB002400F020
:104BF000F4F900F013FAFFF739FE00F0B0F800F016
:104C0000D8F8FFF773FE00F009F91C21684602F09E
:104C100005FF0520C003019002900321009468461F
:104C20000173C14881896846C1810474BF480590F9
:104C3000BF480690684601F00EFD002803D0A12170
:104C4000BC4AC90010E000F015F90020FFF7F2FEA1
:104C500000F022F900F074F80020FFF7A3FF3DDF19
:104C60000028FCD0B34AB449FFF793FDF0B5B34C2C
:104C70009646002922D00378B14A401CD361B14E38
:104C800001258446B560B04B0027D86900280ED0B6
:104C9000002C0ED0DF61491E0906090E10D06046B7
:104CA0000278A748C2616046401C8446EDE7641E56
:104CB000EBD15F60756158680028FCD00020F0BD22
:104CC0007046002804D05F60756158680028FCD0E9
:104CD0000120F0BDF0B5994D002924D0994F9B4B90
:104CE000143701291BD0974A1C325A6101245C6099
:104CF000944A1460944A00269768002F11D0002D22
:104D000011D096608E4FBF690770491E401CC9B212
:104D100001290AD000290CD08A4F3C62ECE75F6180
:104D2000E4E76D1EE8D10020F0BD864F14375F61C7
:104D3000F2E750680028FCD056609C600120F0BD6E
:104D4000794810B52C3873DF002804D0D121794A76
:104D50008900FFF71EFD0120FFF720FC10BD0EB5F6
:104D6000112069460872092279A102A87CDF002877
:104D700002D0704A794919E0C02078DF002803D0BA
:104D800076496C4AC91C11E00021FF209130009146
:104D90006A4601911080430053809180D08068461C
:104DA0007ADF002804D06D49624A0D31FFF7F1FC2B
:104DB0000EBD00B593B0574A062069460870403AC8
:104DC00007CA10AB07C33C2101A802F027FE02204E
:104DD000019001206946487288810320049108846B
:104DE00010A80990002101A800F06AFE002804D054
:104DF0005A49504A3331FFF7CCFC4B4814212C3828
:104E000002F00CFE484800212C380170416001720C
:104E100028210182B421418213B000BD70B54248FF
:104E20006425503001244560512184600160047381
:104E300001464B4800F071FF3B488C216030016017
:104E4000FF212D3141600A21816000260673014651
:104E50004348083000F061FF3348FF21703005609F
:104E6000F53184604160067301463D48103000F022
:104E700054FF70BD3A491E20083908808878012205
:104E80001043E12210400C30DF22104088700720D0
:104E9000C87010200871704710B5314C0121203CBA
:104EA00000220904A06801F01FF9002803D02B4953
:104EB000204AB03122E001210022C903E06801F05C
:104EC00013F9002803D025491A4AB33116E01B49CB
:104ED0000022AA39206901F007F9002803D01F49F0
:104EE000144AB6310AE005210022C903606901F0C5
:104EF000FBF8002804D019490E4AB931FFF749FCE4
:104F000010BD0000002700000000000000000000AD
:104F100000FF002F787C0100002E000000810000BF
:104F20000C010300400700501C250020D14901005E
:104F3000F1490100D44A0100A30500001027000038
:104F400000450040004000400041004000F50140A5
:104F50005A4542452D313030390000001904000017
:104F60002420002070B504460088474D102812D038
:104F7000112816D0132825D0192811D1A07900287E
:104F80000ED10320FFF70AFB31DF002808D03F4A8B
:104F90003F49FFF7FEFB0220FFF700FBA088688077
:104FA00070BD0320FFF7FAFA0020C043688001F0CB
:104FB000A4FE002803D03649344A1539E9E7FFF743
:104FC000BFFE70BD304A6888183200217FDF00289C
:104FD000F7D02F492D4A0A39DBE710B500235022BC
:104FE0002C49082001F0AEFA002803D02849274AAE
:104FF000323110E0284801F0C2FA002803D02449D9
:10500000224A363107E0254801F0C1FA002804D0D1
:105010001F491E4A3A31FFF7BCFB71E75EB502F04B
:105020004CFA002803D01A49184A523128E01C4C87
:1050300060691C4E401C05D0306981B2606902F085
:10504000EFFC00E070696946401E08706069401C12
:1050500005D0306981B2606902F0E2FC00E070695D
:105060006946C01E4870002001900F4802908D7064
:10507000684601F055FF002804D00549034A5F3116
:10508000FFF787FB5EBD000004200020D44A01002A
:105090003B050000A0240020FB490100234A010039
:1050A00000100010000000102B4A010070B50C0029
:1050B000054604D195A233210020FFF76AFB002D9D
:1050C00004D192A234210020FFF763FB20782870DE
:1050D0002088FF2109020840000A68702068090240
:1050E0000840000CA8702068000EE8702079287134
:1050F000207A68712089000AA871A068000CE87104
:1051000070BD70B50D00044604D180A24B21002073
:10511000FFF73FFB002C04D17CA24C210020FFF7BD
:1051200038FB2878207069886170090AA170A98805
:10513000E170090A2171E8886071000AA07170BDF0
:10514000FFB58FB01E4615460F0004D16FA26D212A
:105150000020FFF71EFB002D04D16CA26E21002061
:10516000FFF717FB1C21684602F058FC68460178DF
:1051700002200143684601700024019403940494C2
:105180000594012108A80694817068460F9901844E
:1051900007943178017771784177807FF921084051
:1051A000801CE721084041084900684681771421A6
:1051B00009A802F033FC08A8099007A80A906846DD
:1051C0008585C48505865E480D9709AA69460088CD
:1051D000189BA2DF13B0F0BD7FB5044601216846DD
:1051E000817158498180564A01A90120A0DF002819
:1051F0007ED1228825463C35002A09D050482B46CE
:10520000801C009050486168FFF79AFF00287BD10E
:105210002289002A0AD04A482B460A3000904A4880
:10522000E168401FFFF78CFF00286DD1228A002A19
:105230000AD043482B461230009043486169001F52
:10524000FFF77EFF00285FD1228B002A0AD03C485E
:105250002B461A3000903C48E169801EFFF770FF32
:10526000002851D1228C002A0AD035482B46223002
:1052700000903548616AC01EFFF762FF002843D1E5
:10528000228D002A0AD02E482B462A3000902E4824
:10529000E16A401EFFF754FF002835D1216B002939
:1052A0000ED002A8FFF702FF25482B4632300090AF
:1052B0002548082202A9801FFFF742FF002823D1BA
:1052C000606B00280BD01E492B463A3100910279C1
:1052D00001681D48401CFFF733FF002814D1A16B63
:1052E000002910D002A8FFF70CFF1548423000E05B
:1052F0000AE0009014482B46072202A92730FFF746
:105300001FFF002800D1002004B070BD2E2E5C2E9F
:105310002E5C2E2E5C2E2E5C2E2E5C536F757263CF
:10532000655C626C655C626C655F7365727669630F
:1053300065735C626C655F6469732E6300000000D6
:105340004C2100200A180000292A000008B50A880C
:10535000102A1AD0112A1AD0502A1BD1027D002AF5
:1053600018D0891D0A8843899A4213D10A8B022AD0
:1053700010D10268002A0DD0CA7E8B7E110219431B
:10538000C907C90F07D0002106E0898801E0002184
:10539000C943418208BD01210091026869469047D6
:1053A00008BDF0B50546007D002493B00E460028E8
:1053B0000DD0012001461031684603940173717BC2
:1053C0004173817BF9200140891C684681731C214F
:1053D00004A802F023FB6946087C022108436946C1
:1053E00008742A7DEF21002A02D01022104300E029
:1053F00008406A461074059407940894287D002894
:1054000000D003A8099001270A9410469771544AC6
:1054100082800094B27B0270F27B42708078F92225
:105420001040801CE7221040410849006846817006
:10543000317B017214210BA802F0F0FA01A80B9045
:1054400068460C908786C486078702A80F90A888B4
:10545000AB1D0BAA04A9A2DF002833D1B068002835
:105460002ED0684687713F4981800094317C01705D
:1054700000200146684641708078F9210840801C70
:10548000E7210840410849006846817011A8B168C9
:1054900000F034FC064614210BA802F0BFFA01A864
:1054A0000B9068460C908686C486068711A80F90DC
:1054B0002A46E8880E320BA9A3DF002802D100E0BB
:1054C000EC81002013B0F0BD38B5044608682060B8
:1054D0000020C043608208792075FF200D462074AB
:1054E00001216846817020490180221D6946012002
:1054F000A0DF002803D129462046FFF752FF38BD20
:1055000033B585B004466946227C097E00208A4274
:1055100022D00125684605822174E08806AB04AAE2
:105520000021A4DF002817D1608A1049884215D0D5
:10553000207D002812D00020009001900290694642
:1055400003900D82E2880A808D70888004A8029002
:1055500006A80390608AA6DF07B030BD0820FBE7ED
:10556000192A0000082900000F180000FFFF0000A2
:1055700008B50A88102A17D0112A17D0502A18D136
:10558000891D0A8883899A4213D10A8B022A10D175
:105590000268002A0DD0CA7E8B7E11021943C9070A
:1055A000C90F07D0002106E0898801E00021C94326
:1055B000018408BD0121009102686946904708BD39
:1055C000F7B542790025002A00D004252222135C79
:1055D0000222002B00D01543CBB2FF2907D90122AC
:1055E0001543029A090A53709170032602E002994A
:1055F00002264B7004464034A189002901D01021B5
:105600000D43002716E0B21C142A09D989B2C91B20
:105610004A00790009182431243002F0B9F90CE06D
:10562000029B790009189B19898C1970090A597015
:10563000D6B27F1CA189B942E5DCA089C01BA0813C
:10564000029805703046FEBDF0B5002406460D46B2
:10565000601C010795B0090F103108A80C94017463
:10566000297B4174817CF9273940891C81741C2174
:1056700005A802F0D3F96846017D10200143684671
:1056800001750CA806940A900894099401220B94C1
:1056900008A882767B49684601870D94697B08A833
:1056A0000175A97B4175817DE7203940891C014046
:1056B000114308A881751421684602F0AFF90EA8BD
:1056C00000900DA801900FAA00213046FFF778FF47
:1056D0000146684601811421448181810FA804900C
:1056E0003346F08808336A4605A9A2DF15B0F0BD3D
:1056F00038B5044608682060087960710020C0430E
:105700000D4620840020222108554C2108530121F8
:10571000684681705C490180A21D69460120A0DFB6
:1057200000280FD129462046FFF78EFF002809D117
:10573000A868002805D02946204600F062F8002815
:1057400000D1002038BD30B50446008C4F4A8BB0E4
:1057500090421FD006AA2046FFF732FF6946054651
:1057600008800020019002900390049022898A8092
:1057700001228A71088106A803910490208C01A956
:10578000A6DF002804D169460988A94200D00C2070
:105790000BB030BD0820FBE770B505460446403528
:1057A000A8890E46142807D12622A118881E02F0C7
:1057B000EFF8A889401EA88180B241000919401C59
:1057C000A8818E8470BD40308089142801D00020CB
:1057D000704701207047028C2C4B9A4202D14171D4
:1057E000002070470820704720308170704703B553
:1057F00081B001216A461180008A02AB0021A4DF3A
:105800000EBDF0B58FB00D4606461C21684602F06D
:1058100005F96846017802200143684601700024BA
:105820000194039404940594012708A8069415494B
:105830008770491C684601840794E97B0177297CBD
:105840004177807FF9210840801CE721084041080A
:10585000490068468177142109A802F0DFF808A8FA
:10586000099007A80A9068468785C4850786A868B6
:105870000D903346F088103309AA6946A2DF0FB0B5
:10588000F0BD0000372A00000D180000FFFF0000E7
:10589000FFB583B0074600200C9C86462678054657
:1058A0003AE07868A90041180A88684682804988E9
:1058B000C1800022694601A864DF002810D1684633
:1058C00001780598814226D17046002801D0002237
:1058D00000E002222078891841181F2902D90C20E3
:1058E00007B0F0BD7146002908D1401CC0B2411C70
:1058F000069B049A21701A54012086462178069846
:105900000A18694601A864DF0028E9D169462078B1
:105910000978401820706D1C3888A842C1DC704698
:10592000002804D020780699801B401E885500204E
:10593000D6E7F8B51546069C1E4607460222009497
:10594000FFF7A6FF002806D1334610222946384625
:105950000094FFF79DFFF8BDF7B582B0002605461D
:10596000167000681446002805D02846039900F0F8
:10597000DFF806002DD1687900281BD02078039F1E
:10598000001D1F2824D8684679DF002821D12178FE
:105990000322481C20707A5421781922481C207058
:1059A0007A542078C1196846008800F0BCF8217844
:1059B000401820702989002923D001208446EA68F4
:1059C0000398002A07D0227853189B1C1F2B04D958
:1059D0000C2005B0F0BD0720FBE71346521C491C04
:1059E0002270C15422786746511C21708754237855
:1059F0002A891818E96801F067FF2078297A401889
:105A000020702869002815D00021415622788C4644
:105A1000D01C03991F28DBD8501C022320708B5404
:105A200022780A23501C20708B5420786246431C35
:105A300023700A54A88A002809D028460094062218
:105A400002211430039BFFF774FF0600C1D1A88B1D
:105A5000002809D028460094072203211C30039B0C
:105A6000FFF767FF0600B4D1A88C002809D02846AC
:105A70000094152214212430039BFFF75AFF0600DF
:105A8000A7D1E86A002805D02246039900F085F8DE
:105A900006009ED1286B002805D02246039900F00D
:105AA000BBF8060095D13820405D002806D022467C
:105AB0002846039900F0E2F806008AD1304688E7CC
:105AC00070B50D4692B000216A461170072411711D
:105AD000002812D00189002905D0C168002902D010
:105AE0000978490702D4204612B070BD02A9FFF719
:105AF00033FF0028F8D102AE00E00026002D0BD0C5
:105B000028890028EFD101AA0AA92846FFF724FF17
:105B10000028E9D10AAA00E000226846037901784A
:105B2000304672DFE0E70870000A487002207047D4
:105B3000F8B514780746A01C15460E461F2803D852
:105B40003879801C1F2801D90C20F8BD1D20001BAE
:105B500080B26946864608803019801C7DDF0028A7
:105B6000F3D13868022805D168460088704501D80D
:105B7000092107E038790821002801D0704501D9B2
:105B800068460088421C3255641CE2B2B154297840
:105B9000801C081828700020F8BDF8B50D46117853
:105BA0000646881D14461F2801D90C20F8BD3388ED
:105BB0000720062BFAD31927FF01BB4202D94E4A10
:105BC0009342F3D17288062AF0D3BA4202D94A4FDF
:105BD000BA42EBD1484FBB4203D0BA4201D0934204
:105BE000E4D8481C052220706A5420781222411CF7
:105BF00021702A54207841193088FFF794FF2178CA
:105C00004018C0B2207041197088FFF78CFF2178CE
:105C1000401820700020F8BD70B5054600790E468A
:105C2000801C1446C0B21178821C8A181F2A01D920
:105C30000C2070BD0A46491C401C2170B0542078CD
:105C4000FF22411C21703254207881192888FFF7E7
:105C50006AFF21784018C0B22070AA88002A09D0B3
:105C6000A968002908D0801901F02EFE2078297932
:105C700040182070002070BD072070BDF7B582B0BD
:105C800002981446406B0F46002832D00298002537
:105C90002030009028E00298416B0C2068430E18D9
:105CA000217830794A1CC01C227078542178162241
:105CB000481C20707A542078C1193088FFF733FFD0
:105CC00021784018C0B22070B288002A09D0B1688B
:105CD00000290ED0C01901F0F7FD20783179401865
:105CE00020706D1C0098EDB2007EA842D3D8002031
:105CF0006FE607206DE60000FFFF00000A780270E3
:105D0000497841700220704770B504460D46084638
:105D100001F0B8FD2080656070BD0A7B002A03D0C9
:105D200049680160002102E00968016001210171F8
:105D3000704710B504798B680268002C08D0496858
:105D40008C1A9C4201D9D11807E00160002108E0BB
:105D50000968541A9C4202D9D11A016002E001601C
:105D600001210171006810BD8307FF22DB0E9A40FC
:105D70008907090E994000280BDA0007000F083840
:105D80008308F8489B001B18D86990430843D861E2
:105D900070478308F4489B001B1818689043084319
:105DA00018607047F0B5F14F28217C6841430D1908
:105DB000F9684A1C09D028224A431619AB68B26810
:105DC000934204D8D21AB2606962F860F0BD0A4604
:105DD00002E00A46796A9B1B4E1C0BD028264E43D4
:105DE0003719BE689E42F4D328264E433619B76849
:105DF000FF1AB760AB60696228214A4311194862F3
:105E0000F0BDF8B5D94CE568681C36D0D8480026F6
:105E100040682169401A07023F0A1AE028204543DA
:105E200060682A189068B84215D863693F1A8619C5
:105E3000556A002B0AD0116AD0699847002808D00B
:105E4000FF21CCA25531FEF7A4FC02E0D169106A13
:105E50008847681CE2D1A178E078814206D1401CD5
:105E6000C0B2E070022801D10020E070BF490006F6
:105E7000800D18310E5000F000FAF8BDF8B5044658
:105E8000BA48C1680091467856E0B848F100826887
:105E90008D184BE0601C07D0B44A2821526861433A
:105EA000204689184C6A20E02878182141436A6806
:105EB000401CC0B252182870A978884201D1002035
:105EC0002870AA4B506828215B684143C9181368A1
:105ED000012B2DD10B7E002B2AD19368CB60D36888
:105EE0000B6113694B6152690A62A04ACF6813695A
:105EF000BC46FA1A1202AB4F120ABA4202D20B691E
:105F0000D21809E062469A1A12020B69120A9342E9
:105F100001D99A1A00E000228A600022CA600A6150
:105F200001220A76921E4A62FFF73CFF601CB1D143
:105F3000287869788842ADD13046761EF6B20028BE
:105F4000A3D18A48C1680098814201D00120F8BDE0
:105F50000020F8BD94490020086048608860C8604F
:105F600091494039086048604BE7F0B5002087B0A0
:105F7000C04302907D480669C568684600F083F911
:105F8000074600F09DF90446002F08D002AA3146CA
:105F9000009800F0DDF90298FFF770FF06E0029824
:105FA000FFF76CFF002801D1002C02D0284600F03A
:105FB000F8F907B0F0BDFFB59807002481B01E4680
:105FC00015460F4600280BD1002E09D000F044F9E9
:105FD00066490A9848610F70324600204E6008E01A
:105FE000072005B0F0BD28234343D4509B181C76EE
:105FF000401CB842F7DB28204743BB1903204870F8
:106000000F4618468B6019461830002218232E467A
:106010005E43D3005B181C705C709D705860301834
:10602000521C032AF5DB0020C043F860BC70FC70F2
:1060300001245E482405046003211420FFF794FE28
:106040005B4804604A4C0198A06003211120FFF7CF
:106050008BFE606838610020C3E770B5434C65680B
:10606000002D06D0002A06D0002804D00023247872
:1060700009E0082070BD072070BD28265E43AE5998
:10608000002E04D05B1CA342F7DB042070BD282443
:1060900001265C432E516419E261616003600020B7
:1060A00070BD30494868C005C00D17D0103807D5FD
:1060B0000207120F083A920892005118C96904E0C9
:1060C0008108294A8900891809688007C00EC140E3
:1060D0000806800F012803D0032803D00220704750
:1060E0000020704701207047FEB504461F48174640
:1060F00042680D46002A0CD001788C4201D2052D51
:1061000001D20720FEBD2146282359435358012BB5
:1061100001D00820FEBD8818406801281DD0002647
:10612000FFF7BFFFC0001149019089684018694618
:1061300000F07AF9002812D00121446001600C4976
:1061400049680830E2C009490198896841180098F7
:10615000487000F092F80020FEBD2E46E0E70420D3
:10616000FEBD000000ED00E000E400E0982100200A
:10617000001501402E2E5C2E2E5C2E2E5C2E2E5CE9
:106180002E2E5C536F757263655C6170705F636F18
:106190006D6D6F6E5C6170705F74696D65722E639A
:1061A00000000000FFFF7F004011014080E200E09E
:1061B00000E100E0F8B5BB4D04466868002809D04E
:1061C00029788C4201D30720F8BD2821614340582B
:1061D000012801D00820F8BDFFF763FFC600A868BA
:1061E0006946301800F020F9002809D0022112C0B9
:1061F000A86831180098487000F03FF80020F8BDFA
:106200000420F8BD38B5A74C6068002815D0FFF70A
:1062100048FFC500A0686946281800F005F9002865
:106220000DD003210160091F4160A0682918009862
:10623000487000F022F8002038BD082038BD042046
:1062400038BD99494968016000207047401A000232
:10625000000A10600020704710B50121934A4804DD
:106260001060934A40109060914A403A9060914883
:1062700041602F20FDF77AFF10BD01208B490005FA
:1062800080310860704710B5864900238A78CC7841
:10629000A24212D0521CD2B28A70022A00D18B7054
:1062A0008A78804B920018339A5802600869101857
:1062B0000002000A0861012010BD0360002010BD2B
:1062C000F8B57848C1680091457833E07548E90031
:1062D00080680E1834782AE0182060437168641CC6
:1062E0000818B178E4B2A14200D100240168022963
:1062F00002D003291BD113E06A4A40682821526862
:1063000041438F18397E002911D000F09FF80020FA
:1063100038760CE028277843C0180276406A03E0FC
:10632000604900224B68C868471CF3D1C860707888
:10633000A042D1D128466D1EEDB20028C6D15948E1
:10634000C1680098814201D00120F8BD0020F8BD4D
:10635000F7B5544C00256768E3681EE028215943CF
:10636000C9198E68864202D9301A886017E0801BEE
:10637000751900268E600E764E699C464B6AB646AD
:10638000002E0AD0019E76193602360ACE60764675
:106390000E6116684E6261461160591CDED1E360E1
:1063A000FEBDF8B53F49CA68531C3AD028235A436A
:1063B0004B68D21896683C4A54680F69401CE11B30
:1063C0000D022D0AED1C0121002810D1384A0804C5
:1063D0005060374A403A5060374A40001060334AB4
:1063E000803A1060334801602F20FDF7BFFEB542B0
:1063F00000D23546E81900022B49000A40310860F6
:1064000029494968001B091B0902090A0002C91C25
:10641000000A814204D901202449400480310860E7
:10642000F8BDFFF719FFF8BD42788378521C9342FC
:1064300000D100220378934201D1002070470A6006
:1064400041684078182250430818704770B5154DC0
:10645000EA686B681446114606E0814207D00A4696
:1064600028267143C918496A4E1CF6D170BD002E0A
:10647000FCD08A4204D128204443E018406AE860F6
:1064800028204143C818282481686243406AD218F2
:106490005062421CEAD028225043C018826851182A
:1064A000816070BD982100200015014080E100E06E
:1064B000401301400010014080E200E010B50846A2
:1064C0001146FEF76EF910BDF8B53D4C2078002856
:1064D00037D02069002807D00026E068002805D0C2
:1064E0000025002E04D013E00126F6E70125F8E789
:1064F00068464EDF052806D0002806D031A2692163
:10650000FEF747F904E0012602E021690098884778
:10651000002D12D1608869460880A06860DF0528D8
:1065200006D0002806D027A28021FEF732F904E029
:10653000012502E0E168A0688847002ED8D0002D30
:10654000CFD0F8BD70B5002901D08C0701D007204D
:1065500070BD1B4C0125A16062802849636010DF7B
:106560000028F5D12570162023DF70BD11DF00282B
:1065700001D0012100E00021114A1170704700286C
:1065800003D00F49C860002070470E2070470028D4
:1065900003D00B490861002070470E20704710B5EA
:1065A00007484068002808D08047002804D0FF2111
:1065B00004A23331FEF7EDF810BDFFF785FF10BDE3
:1065C000B82100202E2E5C2E2E5C2E2E5C2E2E5CF2
:1065D0002E2E5C536F757263655C73645F636F6DC1
:1065E0006D6F6E5C736F66746465766963655F6812
:1065F000616E646C65722E6300000000BD64010072
:1066000038B57A497A4A488890420FD04A78794C0E
:10661000521CD2B24A70237B934208D3083175DFF3
:10662000002803D0A169002900D0884738BD002583
:106630004D70217C002907D03B2176DF002803D054
:10664000A169002900D0884761690029EED0684619
:106650000095884738BD70B5054601461C2265483F
:10666000FDF794FD614C002626702968002907D0AB
:106670000822A01801F028F9204608307ADF02E04D
:106680005A4808307BDF002808D1401E60805748F8
:106690006670594A0021001DFFF7DFFC70BD10B580
:1066A00052484068FFF786FD10BDF8B54F481030DE
:1066B00000F08EF800264D4D4E4C002806D0616942
:1066C000002919D001200090684614E0287800289D
:1066D00004D0616900290FD00096F5E7687800289A
:1066E0000CD0A16800226868FFF7FEFC002803D0E8
:1066F000A169002900D088472E70F8BD6168F1E7D4
:10670000F8B53C4C02880027384DE689102A18D08D
:1067100029464968112A21D0122A2DD0502A0FD19A
:10672000801D0288B2420BD1028B022A08D1C27EA0
:10673000837E10021843C007C00F13D0FFF7B5FFC8
:10674000F8BD818869800146284808220E31103042
:1067500001F0BAF86F70002EF0D0F8BD0020C043F1
:1067600068806F700846FFF725FD0028F5D0A16905
:106770000029F2D08847F8BD811D1C48082210303E
:1067800001F0A2F8DAE7F8B5014618480822083007
:1067900001F09AF8154808307ADF04000DD113484B
:1067A000103000F015F80125002808D01148416983
:1067B000002902D06846009588472046F8BD0B4E58
:1067C000357031460831708875DF04467570F4E71E
:1067D0004188064808300288914204D340888142AB
:1067E00001D801207047002070470000CC21002014
:1067F000FFFF00009C250020016601007CB5FC4CD9
:10680000054620790A2801D304207CBD002805D143
:1068100000221146104600F0E9FFA081F4486A46C4
:106820002179103000F0DEFE0028EED104234C2246
:106830002946684600F0FCFE0028E6D1EC4A4C21CF
:106840000C32284600F0D2FFEA49A0814218207994
:1068500000238100E848425009180422684600F0ED
:10686000E7FE0028D1D12079401C207100207CBD9A
:106870007CB5DF4C054660790A2801D304207CBD35
:10688000002805D100221146104600F0AFFFE0813C
:10689000D7486A466179183000F0A4FE0028EED18E
:1068A00004231C222946684600F0C2FE0028E6D1D7
:1068B000CF4A1C210E32284600F098FFCD49E081D6
:1068C0004218607900238100CB481C3042500918DF
:1068D0000422684600F0ACFE0028D0D16079401C4C
:1068E000607100207CBDC548406E002806D0142889
:1068F00001D903207047C149503100E0002182B224
:10690000BB484089A9DF7047F0B5B94800228270C2
:10691000C270467823E0B94B682151436833C918E7
:106920004B7A5B070BD5C378B34D0F78DC00383D4D
:106930002F550F461E3764195B1C6760C3704223D6
:106940005B5C022B0AD08378AB4D0F78DC00703D86
:106950002F55423164195B1C61608370521CB24236
:10696000D9DBF0BDFEB5A24E07467478072C01D3E3
:106970000420FEBDA14D01463222281D00F0A4FFD7
:10698000F888E88768200027604329466F666831E9
:106990002C604018641C747068226839FDF7F6FB9F
:1069A000FFF7B2FF0120F071002211467089A9DFC4
:1069B0000028DED12846FFF721FF2C460C3C042896
:1069C0000ED00028D5D16168002907D0009728781B
:1069D0006A461071E88FD080684688470020FEBD67
:1069E00061680029FBD00420009028786A46107165
:1069F000E88FD08068468847E5E710B57F4A7C4B32
:106A0000002168325B780FE068244C43A418E48FBF
:106A1000844208D168204143891802467748FDF72F
:106A2000B5FB002010BD491C9942EDDB052010BDCF
:106A3000F0B500276E4C714D97B06770683501A8AE
:106A400000F061FB05281BD0002827D16078019E4B
:106A5000864222DC6820704340194C2201A9009034
:106A6000FDF794FB6078864207D100994F660021BC
:106A7000C943009A401CD1646070C0B20728DED3BD
:106A8000002616E001A800F07CFB052814D00028A1
:106A900004D161780198884202DD0B2017B0F0BD67
:106AA0006821484340194C301C2201A9FDF76EFBB8
:106AB000761C60788642E5DB00226078D24306E0EF
:106AC000682141436A5049194F66401CCA6407282F
:106AD000F6DBFFF719FF0020E0E7FEB50546444C62
:106AE000808860810020454EC043306030460722D8
:106AF000A91D423000F0E8FE00207066687B404F20
:106B0000C10716D04008072805D2C1003A483838D6
:106B10004056072805DB39480C3881680320884730
:106B20001CE068214843C11968223448FDF72EFB58
:106B300014E033480025253800900CE02E48E90089
:106B40007038081840680622401C009900F06CFE5E
:106B5000002817D06D1CA0788542EFDB3068411CFF
:106B60000FD00021E171217224490C3949680029B4
:106B700007D0012200926A461071F08FD0806846DB
:106B80008847FEBD1C48E90070384056C9E77CB50F
:106B90001A4C054601463222201D00F095FEE88879
:106BA000E0876821206865184843401900F036FFE7
:106BB000682120680A46484340192146FDF7E6FA55
:106BC0002046FFF71BFE743D04281BD0002801D08F
:106BD000A96888476968002908D0032000902078B8
:106BE0006A461071E08FD080684688477CBD0000FF
:106BF000E421002000002453AC290020FC250020C3
:106C00006426002069680029E2D0042000902078E2
:106C10006A461071E08FD0806846DAE7F8B5FB4C21
:106C200005462078FA4E002802D1B168082088472E
:106C3000F7482A880C30142A57D016DC102A28D09E
:106C40000021112A29D0132A0ED12A7AD2070BD07B
:106C5000A27902231A43A2710268521C04D0416631
:106C60001421503000F0DAFEF8BD0127172A1ED09B
:106C7000182A3ED0522AF7D10068401C04D0A079CF
:106C8000C10701D080070AD5002211466089A9DF1B
:106C900024E02846FFF721FFF8BDA171F8BDDC48CC
:106CA0000C30FFF720FE00281AD12772F8BDAD1D69
:106CB00029780029FAD1A179C907F7D00068401CCA
:106CC00004D0E7712846FFF762FFF8BDE888FFF7B8
:106CD00094FE002807D02846FFF744FE0028F4D091
:106CE000B1688847F8BD0F20FAE7284600F0BCFAE3
:106CF000F8BDA81D00F0E8FAF8BDF8B5C34C20783F
:106D0000002822D0C24D0C352868401C12D0142017
:106D10006946088029466A4650316089AADF002802
:106D200014D12868E86468460088686600F074FA40
:106D300000280BD100221146104600F057FDB44E3A
:106D400069460027088074360BE00820F8BD6820EB
:106D500078430A4680194C2100F048FD69460880B6
:106D60007F1C60788742F2DB0888A189884214D0B2
:106D7000A6480A21103000F0E3FC0028E6D120717B
:106D8000074607E0682078438019FFF737FD0028A1
:106D9000DCD17F1C60788742F4DB0022114610466C
:106DA00000F024FD6946088000270AE06820784347
:106DB00080190A464C301C2100F018FD69460880F5
:106DC0007F1C60788742F1DB0888E189884215D012
:106DD0008E480A21183000F0B3FC0028B6D160714B
:106DE000074608E06820784380194C30FFF740FDE3
:106DF0000028ABD17F1C60788742F3DB0020C043C2
:106E000060812860E86400206866E0712072F8BD47
:106E100038B57F4C0C34606E002801D0082038BD96
:106E20001420694608807A4978486A465C3140896E
:106E3000AADF0028F3D120686946E064098861660A
:106E40006821484372491C22743140181C394C3067
:106E50000C46FDF79BF92046FFF70AFD38BD10B53B
:106E60006A480178002906D0002141700171417102
:106E700000F0C4F910BD082010BD10B50B46411C30
:106E800015D062494978884211DA002B0FD0682169
:106E900048435F49743141184220405C022806D0C3
:106EA00042310722184600F00FFD002010BD0720D8
:106EB00010BDF0B5554B564C0021DA78554F1C3CAF
:106EC00005E0CD00ED198E006D68A551491C914279
:106ED000F7DB504D4E4C0021383D9B78383C05E0A7
:106EE000CE0076198F007668E651491C9942F7DB8F
:106EF0000371002B02D04649383900E000210160BF
:106F00000273002A02D042491C3900E0002181604E
:106F10000020F0BD100002D03D4989680847704745
:106F2000FEB504468068002842D050216846818022
:106F30000A21C1803848354900901031684600F078
:106F4000EDFA002835D12020694688802F4968460F
:106F5000183100F0E3FA00282BD12D480ECC383838
:106F600038300EC0682100F059FD29480027FF4342
:106F70000C30264E0760778100257570357175716C
:106F8000B5710C388078002814D000F037F900284B
:106F90000FD11F492C46757074312046682250432A
:106FA0000F504018641CC7644566072CF5DB05E0EC
:106FB0000720FEBDFFF73CFD0028FAD1012030700C
:106FC0000020FEBD30B5114A1378002B07D00029F0
:106FD00007D00B885278934205D20C2030BD082090
:106FE00030BD0E2030BD0A800028FBD0084B0021A8
:106FF000743306E068244C43E4184D00E48F445396
:10700000491C9142F6DB002030BD0000E421002045
:10701000F025002074290020156F0100F8B5C74C39
:107020002178002903D000216378C54A0EE00820AA
:10703000F8BD68254D43AD18ED8F854204D148B2A7
:10704000411C05D0C5B21CE0491CC9B29942F0D31D
:107050000520F8BD68202E464643B94868223718F7
:10706000394668313846FDF791F8B548B44980593A
:10707000401E8851F86C411C01D0401EF8646D1C04
:10708000EDB26078401E8542E4DB60786821AC4E4A
:1070900048438019683800F0C1FC6078401E607079
:1070A00000F0ACF80028D4D120716071054608E0EA
:1070B000682068438019FFF7A1FB0028C9D16D1C27
:1070C000EDB260788542F3D3002509E0682068437B
:1070D00080194C30FFF7CCFB0028BAD16D1CEDB203
:1070E00060788542F2D3FFF70FFC0020F8BD93498A
:1070F0000A78002A05D08979C907C90F01700020D4
:1071000070470820704730B58C4C0546207985B013
:10711000002805D100221146104600F067FBA0812F
:10712000864802AA2179103000F05CFA002824D1A8
:107130000023042202A904A800F0B9FA00281CD1F7
:1071400001A9049800F0EDF8002816D104234C2280
:1071500002A9284600F0ABFA00280ED1774A4C214C
:107160000C32284600F042FBA0816946898888429B
:1071700005D12079401C2071002005B044E70B2088
:10718000FBE730B56D4C0546607985B0002805D128
:1071900000221146104600F029FBE081674802AA50
:1071A0006179183000F01EFA0028E6D1002304228D
:1071B00002A904A800F07BFA0028DED101A90498F6
:1071C00000F0AFF80028D8D104231C2202A92846D9
:1071D00000F06DFA0028D0D1584A1C210E32284602
:1071E00000F004FBE08169468988884204D1607917
:1071F000401C60710020C0E70B20BEE74F4810B56F
:107200000A21103000F09CFA002804D14B480A21D2
:10721000183000F095FA10BD70B549486838046818
:10722000002C1FDB454D687884421BDAE879444E18
:10723000002807D068206043314680194C22683905
:10724000FCF7A4FF287A002808D0682044433C4972
:10725000A0194C301C221C39FCF798FFFFF754FB97
:10726000002070BD032070BDF8B50646C089FFF749
:10727000C4FB324D334F040002D0052C0CD01FE06C
:1072800001203049E87100221631688981DF04004D
:1072900019D0B968884713E029480C22B11D32384B
:1072A00000F012FB00221146688981DF002801D01E
:1072B000B9688847002211466889A9DF040002D016
:1072C000B96820468847F8BD7CB500780107090FEA
:1072D0000009012912D0022912D1002810D0174C20
:1072E0000126A0793043A07116480C30FFF7FBFA55
:1072F000144D002805D0A968884703E00128EED87E
:1073000074E4267269680029FAD0022000900D48C2
:107310006B460C3002781A71C08FD8806846884757
:1073200064E4094B020C9A4202D1088000207047A5
:10733000401C01D00B20704705207047E42100203D
:1073400064260020F025002024530000142250431E
:10735000F64A002180180171C18002220161C260D9
:1073600041610181704770B5F04E14223078F04CC5
:1073700050438219121D13780F21A588D068042B61
:1073800002D0022B0DD024E001210907096989B23E
:1073900000F046FB401950DF01001AD1A088401CC4
:1073A00014E011699388528840194919521B01252C
:1073B0001818AD02AA4202D2920851DF02E0FF2261
:1073C000013251DF010004D1A0884019A0800120C2
:1073D000B070084670BDF8B5D44C0546A77826466F
:1073E00004207678002F01D1002E17D01E2E28D031
:1073F00020788019C0B21E2801D31E38C0B21426CE
:10740000704300190571426106C90261C160C38001
:10741000069901816078401C607011E000202070A6
:107420002571626103C92161E060E38006982081D3
:1074300001206070FFF797FF002801D0112800D1CC
:107440000020F8BD38B50246B84814230178B94C7D
:1074500059430818C36801791B01E458042905D071
:10746000C388009343690C30A04738BD0023F8E778
:1074700010B5AE4902468B780020012B1CD10023A9
:107480008B70022A03D0032A16D10D2012E00A784D
:1074900014235A435118091D0A78042A04D1A44A16
:1074A00049889288914201D8FFF7CCFF00F075F926
:1074B000002801D0FFF7C6FF10BD70B500259C4C19
:1074C0009A48A5800570457085702E463046FFF7B6
:1074D0003DFF761C1E2EF9D3974865804169974E73
:1074E000491C05D03169406989B200F099FA00E081
:1074F00070693169801E89B24843A0608D4AA580B9
:1075000000200101555089180D818D81401C4D814D
:107510000228F6D301202070002070BDF8B5044683
:1075200083480E46007800281DD0002C1DD0002E68
:107530001BD02068002818D0804DA788286980B209
:1075400087421FD8102F1DD3E0880090002819D043
:1075500079484169491C0AD02969406989B200F01B
:107560005FFA014604E00820F8BD0E20F8BD696905
:1075700028696F4A80B24143009B90687B431B1887
:10758000994201D20720F8BD5188022919D03160F3
:107590007060684B0E01F218506027689F51A388F5
:1075A0001381E3885381A388E48800266343761C13
:1075B0002C69B6B2A4B29C4205D22C69A4B21B1BA2
:1075C00002E00420F8BD00232C69A4B220182C6925
:1075D000A4B29C42EBD9564B491C986096815980C5
:1075E0000020F8BD70B5524B1B78002B18D0002836
:1075F00018D0002A16D00368022B0FD24D4C1E0162
:10760000A559002D0AD045683019048961436918CD
:107610004589406865432818884205D8072070BD11
:10762000082070BD0E2070BD13600020516070BD39
:10763000F8B505463E481F46007814460E46002819
:107640001DD0002E1DD0002D1BD02868022814D27A
:10765000010138484258002A0FD009184A89088980
:107660004968424351186A68914206D9002C04D0F7
:10767000A04202D3E119814205D90720F8BD0820B4
:10768000F8BD0E20F8BD304600F081F800280CD07F
:10769000F01900F07CF8002807D02346324629462E
:1076A00002200097FFF797FEF8BD1020F8BDF8B54F
:1076B00007461F481D46007816460C4600281DD078
:1076C000002C1DD0002F1BD02068022814D219498D
:1076D00000010A58002A0FD041184A8908894968D0
:1076E000424351186268914206D9002E04D0B0423C
:1076F00002D37119814205D90720F8BD0820F8BDD1
:107700000E20F8BD384600F042F800280CD0781959
:1077100000F03DF8002807D060683246411938462D
:1077200000F0D2F80020F8BD1020F8BDE4290020B8
:1077300004220020402C0020001000100000001047
:1077400008B527490978002914D0002814D0016809
:1077500002290DD2234A09015358002B08D0891859
:107760004A890B895A434B68D21843689A4205D814
:10777000072008BD082008BD0E2008BD8B89002108
:107780000A46009101460420FFF725FE08BD800748
:1077900001D0002070470120704770B5124D1421B0
:1077A00028780F4C41434919C988A288914209D8C9
:1077B000FFF7CCFD0020A0806878401E6870287814
:1077C000401C287068780024002807D0FFF7CBFD04
:1077D000040003D0112C01D0FFF734FE204670BD09
:1077E00004220020402C0020E429002010B504468B
:1077F000002A02D01088002210E00A48FBE7030AA2
:1078000000020343A05C584003061B0F43401803CB
:10781000584083B21806C00C5840521C8A42EED31E
:1078200010BD0000FFFF0000034610B50B439B078F
:107830000FD1042A0DD308C810C9121FA342F8D0D3
:1078400018BA21BA884201D9012010BD0020C043D6
:1078500010BD002A03D0D30703D0521C07E000203C
:1078600010BD03780C78401C491C1B1B07D1037802
:107870000C78401C491C1B1B01D1921EF1D11846EB
:1078800010BD000030B5441C03E00178401C002905
:107890000DD08107F9D10B4BDD0104C8D11A9143FA
:1078A0002940FAD0001B0A0603D0C01E30BD001BC1
:1078B00030BD0A0401D0801E30BD0902FCD0401E3C
:1078C00030BD000001010101F8B5042A2CD3830763
:1078D00012D00B78491C0370401C521E83070BD03A
:1078E0000B78491C0370401C521E830704D00B7890
:1078F000491C0370401C521E8B079B0F05D0C91AF0
:10790000DF002023DE1B08C90AE0FCF73FFCF8BDBE
:107910001D4608C9FD401C46B4402C4310C0121F30
:10792000042AF5D2F308C91A521EF0D40B78491C68
:107930000370401C521EEAD40B78491C0370401C93
:10794000521EE4D409780170F8BD431A70B5934211
:107950001BD28918801804E0491E521E0B78401E65
:1079600003709307F8D106E010390B461038103A2F
:1079700078CB78C01038102AF6D203E0001F091F18
:107980000B680360121FF9D570BDFCF7FFFB70BDDB
:10799000F8B5064614460843800707D0751AA54275
:1079A00019D20819102D13D2311907E03046FFF70C
:1079B000CCFFF8BD401E491E02780A70641EF9D241
:1079C000F8BD471B2A463946FFF77EFF641B384641
:1079D000A542F6D3011B22463046FFF775FFF8BDDE
:1079E00001E004C0091F0429FBD28B0701D50280E6
:1079F000801CC90700D00270704700290BD0C30754
:107A000002D00270401C491E022904D3830702D50C
:107A10000280801C891EE3E70022EEE70022DFE7F8
:107A2000002203098B422CD3030A8B4211D300237B
:107A30009C464EE003460B433CD4002243088B4255
:107A400031D303098B421CD3030A8B4201D39446E2
:107A50003FE0C3098B4201D3CB01C01A52418309D5
:107A60008B4201D38B01C01A524143098B4201D38F
:107A70004B01C01A524103098B4201D30B01C01ABA
:107A80005241C3088B4201D3CB00C01A5241830834
:107A90008B4201D38B00C01A524143088B4201D361
:107AA0004B00C01A5241411A00D2014652411046C1
:107AB00070475DE0CA0F00D04942031000D3404236
:107AC000534000229C4603098B422DD3030A8B426C
:107AD00012D3FC22890112BA030A8B420CD389010A
:107AE00092118B4208D3890192118B4204D38901F0
:107AF0003AD0921100E08909C3098B4201D3CB012E
:107B0000C01A524183098B4201D38B01C01A5241E2
:107B100043098B4201D34B01C01A524103098B42E6
:107B200001D30B01C01A5241C3088B4201D3CB00D1
:107B3000C01A524183088B4201D38B00C01A5241B4
:107B4000D9D243088B4201D34B00C01A5241411A8B
:107B500000D20146634652415B10104601D34042B9
:107B6000002B00D54942704763465B1000D340426A
:107B700001B50020C046C04602BD7047704770473F
:107B8000754600F023F8AE46050069465346C00826
:107B9000C000854618B020B5FCF724FB60BC002768
:107BA0004908B6460026C0C5C0C5C0C5C0C5C0C5C9
:107BB000C0C5C0C5C0C5403D49008D46704704469C
:107BC000C046C0462046FCF7BAFA0000004870479D
:107BD000602C002001491820ABBEFEE72600020001
:107BE000704770B58C180578401C6B075B0F01D18E
:107BF0000378401C2A1106D10278401C03E0067865
:107C0000401C0E70491C5B1EF9D12B0705D40023C4
:107C1000521E0DD40B70491CFAE70378401CCB1A96
:107C2000921C03E01D785B1C0D70491C521EF9D597
:107C3000A142D8D3002070BD0D1801000F1801001B
:107C40000A18010000AE00D58000A82F00D3000064
:107C500040008D1400200000A100C8C800DA120006
:107C600081CF00D92200DB0000A400A600AF0000F5
:107C7000000000000000000000A300000030002908
:107C800000000000000000000001002F00000000C4
:107C900000A300000030002A0000000000000000E7
:107CA0000001002F00000000C87C0100002000201F
:107CB00010020000E27B0100507D01001022002034
:107CC000B01A000004410100111324F4120103341E
:107CD000FFFF0A16FF013B7F7F07114F01C3870F8C
:107CE0001F3F0D99011EFEFCF8F0E11B2178080FE3
:107CF00087C3E0F0F8FC1A0C133F3F3F08C9011B93
:107D0000BF1F3824E1F0F88808F8F06103070F9FDF
:107D10005A0B13FEFE0849011B80C035AAFC12C98C
:107D200001200E0F0301F0FCFCF8E001073FFF010A
:107D30003B010F078920180EF0C0800F3F3F1F073F
:107D400080E0F8FF8019192B2907790101C4000090
:04000005000140C1F5
:00000001FF
