:020000040001F9
:10400000C03C0020C5410100D7410100D941010059
:1040100000000000000000000000000000000000A0
:10402000000000000000000000000000DB41010073
:104030000000000000000000DD410100DF41010040
:10404000E1410100E1410100E1410100E1410100E4
:10405000E141010000000000E1410100E1410100F7
:10406000E1410100E1410100E1410100E1410100C4
:10407000E1410100E1410100E1410100E1410100B4
:10408000E1410100D55D0100E1410100E141010094
:10409000EB5D0100E14101001F640100E14101000D
:1040A000E1410100E14101000000000000000000CA
:1040B0000000000000000000000000000000000000
:1040C00000F002F800F032F80CA030C808382418CC
:1040D0002D18A246671EAB4654465D46AC4201D140
:1040E00000F024F87E460F3E0FCCB6460126334240
:1040F00000D0FB1AA246AB46334318472C3A0000C7
:104100004C3A00000023002400250026103A01D379
:1041100078C1FBD8520700D330C100D50B6070477F
:104120001FB5C046C0461FBD10B510BD03F068FCEA
:104130001146FFF7F5FF00F065FC03F080FC03B4C7
:10414000FFF7F2FF03BC03F085FC0000401E00BF38
:1041500000BF00BF00BF00BF00BF00BF00BF00BF67
:1041600000BF00BF00BFF1D170470000401E00BF7C
:1041700000BF00BF00BF00BF00BF00BF00BF00BF47
:1041800000BF00BF00BFF1D17047000070B5054609
:104190000C46164602E00FCC0FC5103E102EFAD288
:1041A000082E02D303CC03C5083E042E07D301CC4E
:1041B00001C5361F03E021782970641C6D1C761E32
:1041C000F9D270BD0A4802680F210A43026009480B
:1041D000804709480047FEE7FEE7FEE7FEE7FEE707
:1041E000FEE7000005480649064A074B70470000F5
:1041F0002405004015420100C1400100C02C0020F0
:10420000C03C0020C0340020C03400202349224894
:104210000860704710B500F01DF8002805D021494E
:104220001F484860C813204988612048018CC9B2E2
:1042300001290ED1818C09070BD1018D0906090FC7
:10424000042906D1808D0006000F02D118490120F3
:10425000886010BD1548018CC9B2012917D1818C25
:10426000090714D1018D09060A0F03D1828D1206A8
:10427000120F0ED0090F012903D1828D1206120FE1
:1042800007D0032903D1808D0006000F01D0002044
:1042900070470120704700000024F4000020002037
:1042A000DFFF07C000050040006C0040C00F00F0B9
:1042B00000060040FEB5FC48016802910021016043
:1042C000FA48C16B0191FA49C163F848403002686D
:1042D000009201600120F74C0004A0604510A56029
:1042E0000120FFF733FF2069C00302D520690004D5
:1042F0000CD400261127E5600120FFF727FFA560F9
:104300000120FFF723FF2069C00301D5012601E04A
:104310007F1EF0D2E5490198C863E4490098403116
:104320000860E149029808603046FEBDE048DF4978
:10433000401EC863DD4940310860DF4900208860C5
:10434000C861D9480F2181601021C160CD21C90405
:104350004162D94AD94938320A61D74AE43A4A61B6
:1043600001228A6005210160A4E7FFB5012581B023
:104370001F4614460646002A15D0FFF79BFF00286B
:1043800011D0C949700880318860F00705D0E1B2CA
:104390003A46029800F0FDFB04E0E1B23A4602988A
:1043A00000F081FB0546284605B0F0BDF8B504468F
:1043B000FFF780FF00282AD0BB493D20803188606C
:1043C0001122B94FBE4B4020F861BE4901208860E0
:1043D000B9490025CE69002E02D0002B02D007E09B
:1043E0005B1EF7D14D60B74E70614E68002EFCD059
:1043F000521E1206120ECD6103D02678641CFE6197
:10440000E8E74D60AF4A506148680028FCD0F8BD2D
:1044100010B50124AC48FFF7C9FF641CE4B2412C7D
:10442000F8D310BD1CB50446A8A103C901910090A2
:104430000123072269467A20FFF797FF012C04D059
:10444000022C3BD0032C72D0C3E09F48FFF7AEFF95
:104450009D48FFF7ABFF9C48FFF7A8FF9A48FFF77E
:10446000A5FF99481030FFF7A1FF97482030FFF7CC
:104470009DFF9548FFF79AFF9348FFF797FF9248F3
:104480003030FFF793FF90484030FFF78FFF8E48A2
:104490005030FFF78BFF8C486030FFF787FF8A486A
:1044A0007030FFF783FF88488030FFF77FFF864832
:1044B0009030FFF77BFF8448A0306EE08248FFF722
:1044C00075FF8148FFF772FF7F48FFF76FFF7E4857
:1044D000FFF76CFF7C481030FFF768FF7A48203008
:1044E000FFF764FF7848FFF761FF7748FFF75EFF4B
:1044F00075483030FFF75AFF73484030FFF756FFDA
:104500007148D030FFF752FF6F48E030FFF74EFFA1
:104510006D487030FFF74AFF6B488030FFF746FF69
:104520006948F030FFF742FF6A4836E0FFE7664827
:10453000FFF73CFF6448FFF739FF6348FFF736FF9A
:104540006148FFF733FF60481030FFF72FFF5E48E8
:104550002030FFF72BFF5C48FFF728FF5A48FFF792
:1045600025FF59483030FFF721FF57484030FFF70B
:104570001DFF55486030FFF719FF5348FFF716FF3E
:1045800051487030FFF712FF4F488030FFF70EFFA1
:1045900050486038FFF70AFF4B48FFF707FF4A48CB
:1045A000FFF704FF4B485038FFF700FF4648FFF77E
:1045B000FDFE48484038FFF7F9FE4348FFF7F6FE96
:1045C0004148FFF7F3FE4048FFF7F0FE3E48FFF793
:1045D000EDFE01243C48FFF7E9FE641CE4B2092C1F
:1045E000F8D31CBDBFF34F8F3C493B48C860BFF3B5
:1045F0004F8FFEE7BFF34F8F38493748C860BFF38E
:104600004F8FFEE710B5D421354800F0B9FE0028E1
:104610000BD0082809D03349884206D03249884255
:1046200003D032A23449FFF7DDFF10BD2C492648E4
:1046300010B57831103801F0BCFA234C81B2383C07
:104640006068401C60602648183000F0BCFF0028FD
:104650000CD008280AD02349884207D02249884232
:1046600004D0254921A22B31FFF7BCFF032160684C
:1046700003F016F9002901D0012000E0002020708D
:1046800010BD114810B53838007800280AD01449F8
:104690000D488831083801F08CFA81B21048183082
:1046A00000F0BAFF10BD00000045004000070050B8
:1046B0000D060000000500500041004000F50140DB
:1046C00010270000004000403C2000200020000097
:1046D00021205F003C2100200400FA0500ED00E0ED
:1046E0000425002003300000013400002E2E5C6DF4
:1046F00061696E2E63000000DE02000010B5FA480A
:104700000122417851404170F84800F0ADFFC9E7FF
:1047100008B500200522F64B1146009001F08BFBF6
:10472000002802D0F34AF4492EE0EF48F34A012171
:10473000083001F0D2FB002803D0D321ED4A8900D4
:1047400022E0E948EE4A01210C3001F0C6FB0028C6
:1047500003D0E949E74A0B3116E0E348E94A012171
:10476000103001F0BAFB002803D0E349E14A1031D0
:104770000AE0DD48E44A0121143001F0AEFB0028D4
:1047800004D0DD49DB4A1531FFF72CFF08BD30B5F9
:104790009BB0032118A80172142110A803F07EF821
:1047A0000024012510A8109405711AA81290601C0D
:1047B0000107090F103110A8017344738473601C42
:1047C0000107090F103110A8C1730020014610A87D
:1047D00001740146C54800F0CBFE002803D0F32148
:1047E000C44A890041E0142115A803F057F80120BC
:1047F0000146103118A8417001200146103118A857
:1048000081700020014618A8C170012001461031B6
:1048100018A8017110A815940576642118A817949A
:104820000170B24815A9183800F08EFD002803D099
:10483000B149B04A983118E04021684603F02EF89B
:10484000B2A1684601F0A0F901200146103108A884
:1048500001770020014608A84177684600F0FCFB7C
:10486000002804D0A449A34AA331FFF7BBFE1BB024
:1048700030BD10B5006800280AD19B483B21408814
:1048800076DF002804D09C499A4AF531FFF7AAFE4A
:1048900008E7984AA049FFF7A5FE10B5044602F0C4
:1048A000FDF82146914800F0A3FD904821461838B4
:1048B00000F08CFC204601F063FE204600F07DFAFB
:1048C000F0E610B502F014FDECE69349894A8E310A
:1048D000FFF788FE08B500210091002801D0A7202D
:1048E00000E0A62069464870012302227A20FFF7E3
:1048F0003CFD08BD70B58EB0342288496846FFF78C
:1049000045FC0124864DA403AC607D26F6003046AC
:10491000FFF71CFCEC603046FFF718FCAC6064202D
:10492000FFF714FC0123332269467A20FFF71DFDAF
:104930000120FFF7CFFFFFF76BFD0EB070BD7FB515
:1049400078A53CCD6E463CC66A4650715172012333
:10495000102269467A20FFF708FD7FBD7FB575A557
:104960003CCD6E463CC66A465071517201231022FE
:1049700069467A20FFF7F9FC7FBD30B50C466749E0
:1049800087B00546182234316846FFF7FFFB6846BA
:10499000C572C4730123162269467A20FFF7E5FC2D
:1049A00007B030BD30B50C465C4987B005461822CB
:1049B0004C316846FFF7EAFB6846C572C4730123B1
:1049C000162269467A20FFF7D0FCE9E708B55DA01A
:1049D000006800900123022269467A20FFF7C5FC97
:1049E00008BD08B5002801D0002000E0CF2056A166
:1049F000096800916946C870012304227A20FFF7F4
:104A0000B4FC08BD524A88B0504B5363FF21504854
:104A10000D314038C162816201624162416201210F
:104A20005160916081631363FFF780FCFFF762FFC1
:104A300000F000FA00F01FFAFFF76AFE00F0EDF850
:104A400000F017F9FFF7A3FE00F044F91C216846B7
:104A500002F024FF0521C9030020019102910322E5
:104A6000009069460A7321498A896946CA81087497
:104A70003848059038480690684601F02CFD00281B
:104A800003D025491B4A17310BE000F04FF900F025
:104A90005FF900F0B5F83DDF0028FCD09F21154AF2
:104AA000C900FFF79FFDF0B52C4C9646002964D055
:104AB00003782B4A401CD3612A4E01258446B560F9
:104AC000294B0027D869002850D0002C50D0DF6136
:104AD000491E0906090E52D0604602782048C2617C
:104AE0006046401C8446EDE7042000201C25002081
:104AF00010220020EC46010046030000054601009C
:104B00002D46010083460100FD460100434F4F4CF6
:104B1000445544455300000046040000C47A010097
:104B2000000500500026000000000000000000000A
:104B300000FF002F00270000000000000000000020
:104B400000FF002F002E0000008100000C01030078
:104B500040070050734801009348010010270000EF
:104B6000004500400040004000410040641EA9D1C3
:104B70005F60756158680028FCD00020F0BD704669
:104B8000002804D05F60756158680028FCD00120BF
:104B9000F0BDF0B5D24D002926D0D24FD24B01291D
:104BA0001ED0D04A08325A6101245C60CD4A143AC2
:104BB0001460CC4A0026EC329768002F12D0002DEA
:104BC00012D09660C94FBF690770491E401CC9B218
:104BD00001290BD000290CD0C24F143F3C62EBE7F7
:104BE0005F61E1E76D1EE7D10020F0BDBD4F5F6161
:104BF000F2E750680028FCD056609C600120F0BDB0
:104C000010B5BB4873DF002803D0BA4ABA49FFF792
:104C1000E9FC0120FFF706FC44E50EB511206946CA
:104C200008720922B5A102A87CDF002803D0B2498E
:104C3000B04AD5311AE0B048A73078DF002803D059
:104C4000AD49AC4AD83111E00021FF2091300091EC
:104C50006A4601911080430053809180D08068465D
:104C60007ADF002804D0DF21A24A8900FFF7BAFCCE
:104C70000EBD00B593B006206946A34A087007CA66
:104C800010AB07C33C2101A802F008FE02200190EE
:104C9000012069464872888103200491088410A885
:104CA0000990002101A800F04BFE002803D0914A92
:104CB0009649FFF797FC14218D4802F0EFFD8C48D0
:104CC000002101704160017228210182B4214182DA
:104CD00013B000BD70B5864864257C300124456062
:104CE00051218460016004730146894800F055FF3A
:104CF0007F488C218C300160FF212D3141600A21D9
:104D000081600026067301468148083000F045FFA7
:104D10007748FF219C300560F5318460416006735F
:104D200001467B48103000F038FF70BD78491E20E6
:104D300008390880887801221043E12210400C30A5
:104D4000DF22104088700720C8701020087170475B
:104D500010B56F4C0121203C00220904A06801F02D
:104D600003F9002803D06949624A7D3122E001211C
:104D70000022C903E06801F0F7F8002803D0634976
:104D80005C4A803116E056490022AA39206901F0B8
:104D9000EBF8002803D05D49564A83310AE005212B
:104DA0000022C903606901F0DFF8002804D05749E8
:104DB000504A8631FFF716FC74E470B50446544D32
:104DC0000088203D102813D0112817D0132826D092
:104DD000192812D1A07900280FD10320FFF722FB58
:104DE00031DF002809D04921424A0901FFF7FAFBC7
:104DF0000220FFF717FBA088688070BD0320FFF733
:104E000011FB0020C043688001F0B7FE002803D0EA
:104E10003E49384ADA31E9E7FFF7F2FE70BD3C4A15
:104E20006888083A00217FDF0028F7D03749314AE7
:104E3000E531DBE72E4910B5002350225039082018
:104E400001F0C0FA002802D02A4A324910E0324864
:104E500001F0D5FA002803D02E49264A091D07E0A3
:104E60002E4801F0D4FA002804D02A49214A0831FA
:104E7000FFF7B8FB16E45EB502F05FFA002803D036
:104E800024491C4A203128E0254C6069254E401CED
:104E900005D0306981B2606902F002FD00E07069FE
:104EA0006946401E08706069401C05D0306981B2B7
:104EB000606902F0F5FC00E070696946C01E487048
:104EC00000200190184802908D70684601F068FF3C
:104ED000002804D00F49074A2D31FFF783FB5EBD40
:104EE000102700001440004000F50140004500403C
:104EF000F0240020EC4601009A0200005A45424589
:104F00002D31303039000000B87A0100A1030000D3
:104F100024200020C20400009B480100C348010077
:104F20000010001000000010CB48010070B50C000C
:104F3000054604D195A233210020FFF753FB002D35
:104F400004D192A234210020FFF74CFB2078287076
:104F50002088FF2109020840000A687020680902C1
:104F60000840000CA8702068000EE87020792871B5
:104F7000207A68712089000AA871A068000CE87185
:104F800070BD70B50D00044604D180A24B210020F5
:104F9000FFF728FB002C04D17CA24C210020FFF756
:104FA00021FB2878207069886170090AA170A9889E
:104FB000E170090A2171E8886071000AA07170BD72
:104FC000FFB58FB01E4615460F0004D16FA26D21AC
:104FD0000020FFF707FB002D04D16CA26E210020FA
:104FE000FFF700FB1C21684602F058FC6846017878
:104FF0000220014368460170002401940394049444
:105000000594012108A80694817068460F990184CF
:1050100007943178017771784177807FF9210840D2
:10502000801CE72108404108490068468177142127
:1050300009A802F033FC08A8099007A80A9068465E
:105040008585C48505865E480D9709AA694600884E
:10505000189BA2DF13B0F0BD7FB50446012168465E
:10506000817158498180564A01A90120A0DF00289A
:105070007ED1228825463C35002A09D050482B464F
:10508000801C009050486168FFF79AFF00287BD190
:105090002289002A0AD04A482B460A3000904A4802
:1050A000E168401FFFF78CFF00286DD1228A002A9B
:1050B0000AD043482B461230009043486169001FD4
:1050C000FFF77EFF00285FD1228B002A0AD03C48E0
:1050D0002B461A3000903C48E169801EFFF770FFB4
:1050E000002851D1228C002A0AD035482B46223084
:1050F00000903548616AC01EFFF762FF002843D167
:10510000228D002A0AD02E482B462A3000902E48A5
:10511000E16A401EFFF754FF002835D1216B0029BA
:105120000ED002A8FFF702FF25482B463230009030
:105130002548082202A9801FFFF742FF002823D13B
:10514000606B00280BD01E492B463A310091027942
:1051500001681D48401CFFF733FF002814D1A16BE4
:10516000002910D002A8FFF70CFF1548423000E0DC
:105170000AE0009014482B46072202A92730FFF7C7
:105180001FFF002800D1002004B070BD2E2E5C2E21
:105190002E5C2E2E5C2E2E5C2E2E5C536F75726351
:1051A000655C626C655C626C655F73657276696391
:1051B00065735C626C655F6469732E630000000058
:1051C0004C2100200A180000292A000008B50A888E
:1051D000102A1AD0112A1AD0502A1BD1027D002A77
:1051E00018D0891D0A8843899A4213D10A8B022A52
:1051F00010D10268002A0DD0CA7E8B7E110219439D
:10520000C907C90F07D0002106E0898801E0002105
:10521000C943418208BD0121009102686946904757
:1052200008BDF0B50546007D002493B00E46002869
:105230000DD0012001461031684603940173717B43
:105240004173817BF9200140891C684681731C21D0
:1052500004A802F023FB6946087C02210843694642
:1052600008742A7DEF21002A02D01022104300E0AA
:1052700008406A461074059407940894287D002815
:1052800000D003A8099001270A9410469771544A48
:1052900082800094B27B0270F27B42708078F922A7
:1052A0001040801CE7221040410849006846817088
:1052B000317B017214210BA802F0F0FA01A80B90C7
:1052C00068460C908786C486078702A80F90A88836
:1052D000AB1D0BAA04A9A2DF002833D1B0680028B7
:1052E0002ED0684687713F4981800094317C0170DF
:1052F00000200146684641708078F9210840801CF2
:10530000E7210840410849006846817011A8B1684A
:1053100000F034FC064614210BA802F0BFFA01A8E5
:105320000B9068460C908686C486068711A80F905D
:105330002A46E8880E320BA9A3DF002802D100E03C
:10534000EC81002013B0F0BD38B504460868206039
:105350000020C043608208792075FF200D4620742C
:1053600001216846817020490180221D6946012083
:10537000A0DF002803D129462046FFF752FF38BDA1
:1053800033B585B004466946227C097E00208A42F6
:1053900022D00125684605822174E08806AB04AA64
:1053A0000021A4DF002817D1608A1049884215D057
:1053B000207D002812D000200090019002906946C4
:1053C00003900D82E2880A808D70888004A8029084
:1053D00006A80390608AA6DF07B030BD0820FBE76F
:1053E000192A0000082900000F180000FFFF000024
:1053F00008B50A88102A17D0112A17D0502A18D1B8
:10540000891D0A8883899A4213D10A8B022A10D1F6
:105410000268002A0DD0CA7E8B7E11021943C9078B
:10542000C90F07D0002106E0898801E00021C943A7
:10543000018408BD0121009102686946904708BDBA
:10544000F7B542790025002A00D004252222135CFA
:105450000222002B00D01543CBB2FF2907D901222D
:105460001543029A090A53709170032602E00299CB
:1054700002264B7004464034A189002901D0102136
:105480000D43002716E0B21C142A09D989B2C91BA2
:105490004A00790009182431243002F0B9F90CE0EF
:1054A000029B790009189B19898C1970090A597097
:1054B000D6B27F1CA189B942E5DCA089C01BA081BE
:1054C000029805703046FEBDF0B5002406460D4634
:1054D000601C010795B0090F103108A80C940174E5
:1054E000297B4174817CF9273940891C81741C21F6
:1054F00005A802F0D3F96846017D102001436846F3
:1055000001750CA806940A900894099401220B9442
:1055100008A882767B49684601870D94697B08A8B4
:105520000175A97B4175817DE7203940891C0140C7
:10553000114308A881751421684602F0AFF90EA83E
:1055400000900DA801900FAA00213046FFF778FFC8
:105550000146684601811421448181810FA804908D
:105560003346F08808336A4605A9A2DF15B0F0BDBE
:1055700038B5044608682060087960710020C0438F
:105580000D4620840020222108554C21085301217A
:10559000684681705C490180A21D69460120A0DF38
:1055A00000280FD129462046FFF78EFF002809D199
:1055B000A868002805D02946204600F062F8002897
:1055C00000D1002038BD30B50446008C4F4A8BB066
:1055D00090421FD006AA2046FFF732FF69460546D3
:1055E00008800020019002900390049022898A8014
:1055F00001228A71088106A803910490208C01A9D8
:10560000A6DF002804D169460988A94200D00C20F1
:105610000BB030BD0820FBE770B5054604464035A9
:10562000A8890E46142807D12622A118881E02F048
:10563000EFF8A889401EA88180B241000919401CDA
:10564000A8818E8470BD40308089142801D000204C
:10565000704701207047028C2C4B9A4202D1417155
:10566000002070470820704720308170704703B5D4
:1056700081B001216A461180008A02AB0021A4DFBB
:105680000EBDF0B58FB00D4606461C21684602F0EF
:1056900005F968460178022001436846017000243C
:1056A0000194039404940594012708A806941549CD
:1056B0008770491C684601840794E97B0177297C3F
:1056C0004177807FF9210840801CE721084041088C
:1056D000490068468177142109A802F0DFF808A87C
:1056E000099007A80A9068468785C4850786A86838
:1056F0000D903346F088103309AA6946A2DF0FB037
:10570000F0BD0000372A00000D180000FFFF000068
:10571000FFB583B0074600200C9C864626780546D8
:105720003AE07868A90041180A886846828049886A
:10573000C1800022694601A864DF002810D16846B4
:1057400001780598814226D17046002801D00022B8
:1057500000E002222078891841181F2902D90C2064
:1057600007B0F0BD7146002908D1401CC0B2411CF1
:10577000069B049A21701A540120864621780698C7
:105780000A18694601A864DF0028E9D16946207833
:105790000978401820706D1C3888A842C1DC70461A
:1057A000002804D020780699801B401E88550020D0
:1057B000D6E7F8B51546069C1E4607460222009419
:1057C000FFF7A6FF002806D13346102229463846A7
:1057D0000094FFF79DFFF8BDF7B582B0002605469F
:1057E000167000681446002805D02846039900F07A
:1057F000DFF806002DD1687900281BD02078039FA0
:10580000001D1F2824D8684679DF002821D121787F
:105810000322481C20707A5421781922481C2070D9
:105820007A542078C1196846008800F0BCF82178C5
:10583000401820702989002923D001208446EA6875
:105840000398002A07D0227853189B1C1F2B04D9D9
:105850000C2005B0F0BD0720FBE71346521C491C85
:105860002270C15422786746511C217087542378D6
:105870002A891818E96801F067FF2078297A40180A
:1058800020702869002815D00021415622788C46C6
:10589000D01C03991F28DBD8501C022320708B5486
:1058A00022780A23501C20708B5420786246431CB7
:1058B00023700A54A88A002809D02846009406229A
:1058C00002211430039BFFF774FF0600C1D1A88B9F
:1058D000002809D028460094072203211C30039B8E
:1058E000FFF767FF0600B4D1A88C002809D028462E
:1058F0000094152214212430039BFFF75AFF060061
:10590000A7D1E86A002805D02246039900F085F85F
:1059100006009ED1286B002805D02246039900F08E
:10592000BBF8060095D13820405D002806D02246FD
:105930002846039900F0E2F806008AD1304688E74D
:1059400070B50D4692B000216A461170072411719E
:10595000002812D00189002905D0C168002902D091
:105960000978490702D4204612B070BD02A9FFF79A
:1059700033FF0028F8D102AE00E00026002D0BD046
:1059800028890028EFD101AA0AA92846FFF724FF99
:105990000028E9D10AAA00E00022684603790178CC
:1059A000304672DFE0E70870000A48700220704756
:1059B000F8B514780746A01C15460E461F2803D8D4
:1059C0003879801C1F2801D90C20F8BD1D20001B30
:1059D00080B26946864608803019801C7DDF002829
:1059E000F3D13868022805D168460088704501D88F
:1059F000092107E038790821002801D0704501D934
:105A000068460088421C3255641CE2B2B1542978C1
:105A1000801C081828700020F8BDF8B50D461178D4
:105A20000646881D14461F2801D90C20F8BD33886E
:105A30000720062BFAD31927FF01BB4202D94E4A91
:105A40009342F3D17288062AF0D3BA4202D94A4F60
:105A5000BA42EBD1484FBB4203D0BA4201D0934285
:105A6000E4D8481C052220706A5420781222411C78
:105A700021702A54207841193088FFF794FF21784B
:105A80004018C0B2207041197088FFF78CFF217850
:105A9000401820700020F8BD70B5054600790E460C
:105AA000801C1446C0B21178821C8A181F2A01D9A2
:105AB0000C2070BD0A46491C401C2170B05420784F
:105AC000FF22411C21703254207881192888FFF769
:105AD0006AFF21784018C0B22070AA88002A09D035
:105AE000A968002908D0801901F02EFE20782979B4
:105AF00040182070002070BD072070BDF7B582B03F
:105B000002981446406B0F46002832D002980025B8
:105B10002030009028E00298416B0C2068430E185A
:105B2000217830794A1CC01C2270785421781622C2
:105B3000481C20707A542078C1193088FFF733FF51
:105B400021784018C0B22070B288002A09D0B1680C
:105B500000290ED0C01901F0F7FD207831794018E6
:105B600020706D1C0098EDB2007EA842D3D80020B2
:105B70006FE607206DE60000FFFF00000A78027064
:105B8000497841700220704770B504460D460846BA
:105B900001F0B8FD2080656070BD0A7B002A03D04B
:105BA00049680160002102E009680160012101717A
:105BB000704710B504798B680268002C08D04968DA
:105BC0008C1A9C4201D9D11807E00160002108E03D
:105BD0000968541A9C4202D9D11A016002E001609E
:105BE00001210171006810BD8307FF22DB0E9A407E
:105BF0008907090E994000280BDA0007000F0838C2
:105C00008308F8489B001B18D86990430843D86163
:105C100070478308F4489B001B181868904308439A
:105C200018607047F0B5F14F28217C6841430D1989
:105C3000F9684A1C09D028224A431619AB68B26891
:105C4000934204D8D21AB2606962F860F0BD0A4685
:105C500002E00A46796A9B1B4E1C0BD028264E4355
:105C60003719BE689E42F4D328264E433619B768CA
:105C7000FF1AB760AB60696228214A431119486274
:105C8000F0BDF8B5D94CE568681C36D0D848002678
:105C900040682169401A07023F0A1AE0282045435C
:105CA00060682A189068B84215D863693F1A861947
:105CB000556A002B0AD0116AD0699847002808D08D
:105CC000FF21CCA25531FEF78DFC02E0D169106AAC
:105CD0008847681CE2D1A178E078814206D1401C57
:105CE000C0B2E070022801D10020E070BF49000678
:105CF000800D18310E5000F000FAF8BDF8B50446DA
:105D0000BA48C1680091467856E0B848F100826808
:105D10008D184BE0601C07D0B44A282152686143BB
:105D2000204689184C6A20E02878182141436A6887
:105D3000401CC0B252182870A978884201D10020B6
:105D40002870AA4B506828215B684143C918136822
:105D5000012B2DD10B7E002B2AD19368CB60D36809
:105D60000B6113694B6152690A62A04ACF681369DB
:105D7000BC46FA1A1202AB4F120ABA4202D20B699F
:105D8000D21809E062469A1A12020B69120A93426B
:105D900001D99A1A00E000228A600022CA600A61D2
:105DA00001220A76921E4A62FFF73CFF601CB1D1C5
:105DB000287869788842ADD13046761EF6B2002840
:105DC000A3D18A48C1680098814201D00120F8BD62
:105DD0000020F8BD94490020086048608860C860D1
:105DE00091494039086048604BE7F0B5002087B022
:105DF000C04302907D480669C568684600F083F993
:105E0000074600F09DF90446002F08D002AA31464B
:105E1000009800F0DDF90298FFF770FF06E00298A5
:105E2000FFF76CFF002801D1002C02D0284600F0BB
:105E3000F8F907B0F0BDFFB59807002481B01E4601
:105E400015460F4600280BD1002E09D000F044F96A
:105E500066490A9848610F70324600204E6008E09B
:105E6000072005B0F0BD28234343D4509B181C766F
:105E7000401CB842F7DB28204743BB190320487079
:105E80000F4618468B6019461830002218232E46FC
:105E90005E43D3005B181C705C709D7058603018B6
:105EA000521C032AF5DB0020C043F860BC70FC7074
:105EB00001245E482405046003211420FFF794FEAA
:105EC0005B4804604A4C0198A06003211120FFF751
:105ED0008BFE606838610020C3E770B5434C65688D
:105EE000002D06D0002A06D0002804D000232478F4
:105EF00009E0082070BD072070BD28265E43AE591A
:105F0000002E04D05B1CA342F7DB042070BD2824C4
:105F100001265C432E516419E26161600360002038
:105F200070BD30494868C005C00D17D0103807D57E
:105F30000207120F083A920892005118C96904E04A
:105F40008108294A8900891809688007C00EC14064
:105F50000806800F012803D0032803D002207047D1
:105F60000020704701207047FEB504461F481746C1
:105F700042680D46002A0CD001788C4201D2052DD2
:105F800001D20720FEBD2146282359435358012B37
:105F900001D00820FEBD8818406801281DD00026C9
:105FA000FFF7BFFFC000114901908968401869469A
:105FB00000F07AF9002812D00121446001600C49F8
:105FC00049680830E2C00949019889684118009879
:105FD000487000F092F80020FEBD2E46E0E7042055
:105FE000FEBD000000ED00E000E400E0982100208C
:105FF000001501402E2E5C2E2E5C2E2E5C2E2E5C6B
:106000002E2E5C536F757263655C6170705F636F99
:106010006D6D6F6E5C6170705F74696D65722E631B
:1060200000000000FFFF7F004011014080E200E01F
:1060300000E100E0F8B5BB4D04466868002809D0CF
:1060400029788C4201D30720F8BD282161434058AC
:10605000012801D00820F8BDFFF763FFC600A8683B
:106060006946301800F020F9002809D0022112C03A
:10607000A86831180098487000F03FF80020F8BD7B
:106080000420F8BD38B5A74C6068002815D0FFF78C
:1060900048FFC500A0686946281800F005F90028E7
:1060A0000DD003210160091F4160A06829180098E4
:1060B000487000F022F8002038BD082038BD0420C8
:1060C00038BD99494968016000207047401A0002B4
:1060D000000A10600020704710B50121934A48045F
:1060E0001060934A40109060914A403A9060914805
:1060F00041602F20FEF73AF810BD01208B490005C2
:1061000080310860704710B5864900238A78CC78C2
:10611000A24212D0521CD2B28A70022A00D18B70D5
:106120008A78804B920018339A58026008691018D8
:106130000002000A0861012010BD0360002010BDAC
:10614000F8B57848C1680091457833E07548E900B2
:1061500080680E1834782AE0182060437168641C47
:106160000818B178E4B2A14200D1002401680229E4
:1061700002D003291BD113E06A4A406828215268E3
:1061800041438F18397E002911D000F09FF800207C
:1061900038760CE028277843C0180276406A03E07E
:1061A000604900224B68C868471CF3D1C86070780A
:1061B000A042D1D128466D1EEDB20028C6D1594863
:1061C000C1680098814201D00120F8BD0020F8BDCF
:1061D000F7B5544C00256768E3681EE02821594351
:1061E000C9198E68864202D9301A886017E0801B70
:1061F000751900268E600E764E699C464B6AB6462F
:10620000002E0AD0019E76193602360ACE607646F6
:106210000E6116684E6261461160591CDED1E36062
:10622000FEBDF8B53F49CA68531C3AD028235A43EB
:106230004B68D21896683C4A54680F69401CE11BB1
:106240000D022D0AED1C0121002810D1384A080446
:106250005060374A403A5060374A40001060334A35
:10626000803A1060334801602F20FDF77FFFB54270
:1062700000D23546E81900022B49000A4031086077
:1062800029494968001B091B0902090A0002C91CA7
:10629000000A814204D90120244940048031086069
:1062A000F8BDFFF719FFF8BD42788378521C93427E
:1062B00000D100220378934201D1002070470A6088
:1062C00041684078182250430818704770B5154D42
:1062D000EA686B681446114606E0814207D00A4618
:1062E00028267143C918496A4E1CF6D170BD002E8C
:1062F000FCD08A4204D128204443E018406AE86078
:1063000028204143C818282481686243406AD21873
:106310005062421CEAD028225043C01882685118AB
:10632000816070BD982100200015014080E100E0EF
:10633000401301400010014080E200E010B5084623
:106340001146FEF757F910BDF8B53D4C20780028EE
:1063500037D02069002807D00026E068002805D043
:106360000025002E04D013E00126F6E70125F8E70A
:1063700068464EDF052806D0002806D031A26921E4
:10638000FEF730F904E0012602E021690098884711
:10639000002D12D1608869460880A06860DF05285A
:1063A00006D0002806D027A28021FEF71BF904E0C2
:1063B000012502E0E168A0688847002ED8D0002DB2
:1063C000CFD0F8BD70B5002901D08C0701D00720CF
:1063D00070BD1B4C0125A16062802849636010DFFD
:1063E0000028F5D12570162023DF70BD11DF0028AD
:1063F00001D0012100E00021114A117070470028EE
:1064000003D00F49C860002070470E207047002855
:1064100003D00B490861002070470E20704710B56B
:1064200007484068002808D08047002804D0FF2192
:1064300004A23331FEF7D6F810BDFFF785FF10BD7B
:10644000B82100202E2E5C2E2E5C2E2E5C2E2E5C73
:106450002E2E5C536F757263655C73645F636F6D42
:106460006D6F6E5C736F66746465766963655F6893
:10647000616E646C65722E63000000003D63010074
:1064800038B57A497A4A488890420FD04A78794C90
:10649000521CD2B24A70237B934208D3083175DF75
:1064A000002803D0A169002900D0884738BD002505
:1064B0004D70217C002907D03B2176DF002803D0D6
:1064C000A169002900D0884761690029EED068469B
:1064D0000095884738BD70B5054601461C226548C1
:1064E000FDF754FE614C002626702968002907D06C
:1064F0000822A01801F028F9204608307ADF02E0CF
:106500005A4808307BDF002808D1401E6080574879
:106510006670594A0021001DFFF7DFFC70BD10B501
:1065200052484068FFF786FD10BDF8B54F4810305F
:1065300000F08EF800264D4D4E4C002806D06169C3
:10654000002919D001200090684614E0287800281E
:1065500004D0616900290FD00096F5E7687800281B
:106560000CD0A16800226868FFF7FEFC002803D069
:10657000A169002900D088472E70F8BD6168F1E755
:10658000F8B53C4C02880027384DE689102A18D00F
:1065900029464968112A21D0122A2DD0502A0FD11C
:1065A000801D0288B2420BD1028B022A08D1C27E22
:1065B000837E10021843C007C00F13D0FFF7B5FF4A
:1065C000F8BD818869800146284808220E311030C4
:1065D00001F0BAF86F70002EF0D0F8BD0020C04373
:1065E00068806F700846FFF725FD0028F5D0A16987
:1065F0000029F2D08847F8BD811D1C4808221030C0
:1066000001F0A2F8DAE7F8B5014618480822083088
:1066100001F09AF8154808307ADF04000DD11348CC
:10662000103000F015F80125002808D01148416904
:10663000002902D06846009588472046F8BD0B4ED9
:10664000357031460831708875DF04467570F4E79F
:106650004188064808300288914204D3408881422C
:1066600001D801207047002070470000CC21002095
:10667000FFFF00009C250020816401007CB5FC4CDC
:10668000054620790A2801D304207CBD002805D1C5
:1066900000221146104600F0E9FFA081F4486A4646
:1066A0002179103000F0DEFE0028EED104234C22C8
:1066B0002946684600F0FCFE0028E6D1EC4A4C2151
:1066C0000C32284600F0D2FFEA49A0814218207916
:1066D00000238100E848425009180422684600F06F
:1066E000E7FE0028D1D12079401C207100207CBD1C
:1066F0007CB5DF4C054660790A2801D304207CBDB7
:10670000002805D100221146104600F0AFFFE081BD
:10671000D7486A466179183000F0A4FE0028EED10F
:1067200004231C222946684600F0C2FE0028E6D158
:10673000CF4A1C210E32284600F098FFCD49E08157
:106740004218607900238100CB481C304250091860
:106750000422684600F0ACFE0028D0D16079401CCD
:10676000607100207CBDC548406E002806D014280A
:1067700001D903207047C149503100E0002182B2A5
:10678000BB484089A9DF7047F0B5B9480022827044
:10679000C270467823E0B94B682151436833C91869
:1067A0004B7A5B070BD5C378B34D0F78DC00383DCF
:1067B0002F550F461E3764195B1C6760C370422358
:1067C0005B5C022B0AD08378AB4D0F78DC00703D08
:1067D0002F55423164195B1C61608370521CB242B8
:1067E000D9DBF0BDFEB5A24E07467478072C01D365
:1067F0000420FEBDA14D01463222281D00F0A4FF59
:10680000F888E88768200027604329466F6668316A
:106810002C604018641C747068226839FDF7B6FC5F
:10682000FFF7B2FF0120F071002211467089A9DF45
:106830000028DED12846FFF721FF2C460C3C042817
:106840000ED00028D5D16168002907D0009728789C
:106850006A461071E88FD080684688470020FEBDE8
:1068600061680029FBD00420009028786A461071E6
:10687000E88FD08068468847E5E710B57F4A7C4BB3
:10688000002168325B780FE068244C43A418E48F41
:10689000844208D168204143891802467748FDF7B1
:1068A00075FC002010BD491C9942EDDB052010BD90
:1068B000F0B500276E4C714D97B06770683501A830
:1068C00000F061FB05281BD0002827D16078019ECD
:1068D000864222DC6820704340194C2201A90090B6
:1068E000FDF754FC6078864207D100994F6600217D
:1068F000C943009A401CD1646070C0B20728DED33F
:10690000002616E001A800F07CFB052814D0002822
:1069100004D161780198884202DD0B2017B0F0BDE8
:106920006821484340194C301C2201A9FDF72EFC78
:10693000761C60788642E5DB00226078D24306E070
:10694000682141436A5049194F66401CCA640728B0
:10695000F6DBFFF719FF0020E0E7FEB50546444CE3
:10696000808860810020454EC04330603046072259
:10697000A91D423000F0E8FE00207066687B404FA1
:10698000C10716D04008072805D2C1003A48383858
:106990004056072805DB39480C38816803208847B2
:1069A0001CE068214843C11968223448FDF7EEFB1A
:1069B00014E033480025253800900CE02E48E9000B
:1069C0007038081840680622401C009900F06CFEE0
:1069D000002817D06D1CA0788542EFDB3068411C81
:1069E0000FD00021E171217224490C394968002936
:1069F00007D0012200926A461071F08FD08068465D
:106A00008847FEBD1C48E90070384056C9E77CB590
:106A10001A4C054601463222201D00F095FEE888FA
:106A2000E0876821206865184843401900F036FF68
:106A3000682120680A46484340192146FDF7A6FB15
:106A40002046FFF71BFE743D04281BD0002801D010
:106A5000A96888476968002908D003200090207839
:106A60006A461071E08FD080684688477CBD000080
:106A7000E421002000002453AC290020FC25002044
:106A80006426002069680029E2D004200090207864
:106A90006A461071E08FD0806846DAE7F8B5FB4CA3
:106AA00005462078FA4E002802D1B16808208847B0
:106AB000F7482A880C30142A57D016DC102A28D020
:106AC0000021112A29D0132A0ED12A7AD2070BD0FD
:106AD000A27902231A43A2710268521C04D04166B3
:106AE0001421503000F0DAFEF8BD0127172A1ED01D
:106AF000182A3ED0522AF7D10068401C04D0A07951
:106B0000C10701D080070AD5002211466089A9DF9C
:106B100024E02846FFF721FFF8BDA171F8BDDC484D
:106B20000C30FFF720FE00281AD12772F8BDAD1DEA
:106B300029780029FAD1A179C907F7D00068401C4B
:106B400004D0E7712846FFF762FFF8BDE888FFF739
:106B500094FE002807D02846FFF744FE0028F4D012
:106B6000B1688847F8BD0F20FAE7284600F0BCFA64
:106B7000F8BDA81D00F0E8FAF8BDF8B5C34C2078C0
:106B8000002822D0C24D0C352868401C12D0142099
:106B90006946088029466A4650316089AADF002884
:106BA00014D12868E86468460088686600F074FAC2
:106BB00000280BD100221146104600F057FDB44EBC
:106BC00069460027088074360BE00820F8BD68206D
:106BD00078430A4680194C2100F048FD6946088038
:106BE0007F1C60788742F2DB0888A189884214D034
:106BF000A6480A21103000F0E3FC0028E6D12071FD
:106C0000074607E0682078438019FFF737FD002822
:106C1000DCD17F1C60788742F4DB002211461046ED
:106C200000F024FD6946088000270AE068207843C8
:106C300080190A464C301C2100F018FD6946088076
:106C40007F1C60788742F1DB0888E189884215D093
:106C50008E480A21183000F0B3FC0028B6D16071CC
:106C6000074608E06820784380194C30FFF740FD64
:106C70000028ABD17F1C60788742F3DB0020C04343
:106C800060812860E86400206866E0712072F8BDC9
:106C900038B57F4C0C34606E002801D0082038BD18
:106CA0001420694608807A4978486A465C314089F0
:106CB000AADF0028F3D120686946E064098861668C
:106CC0006821484372491C22743140181C394C30E9
:106CD0000C46FDF75BFA2046FFF70AFD38BD10B5FC
:106CE0006A480178002906D0002141700171417184
:106CF00000F0C4F910BD082010BD10B50B46411CB2
:106D000015D062494978884211DA002B0FD06821EA
:106D100048435F49743141184220405C022806D044
:106D200042310722184600F00FFD002010BD072059
:106D300010BDF0B5554B564C0021DA78554F1C3C30
:106D400005E0CD00ED198E006D68A551491C9142FA
:106D5000F7DB504D4E4C0021383D9B78383C05E028
:106D6000CE0076198F007668E651491C9942F7DB10
:106D70000371002B02D04649383900E00021016040
:106D80000273002A02D042491C3900E000218160D0
:106D90000020F0BD100002D03D49896808477047C7
:106DA000FEB504468068002842D0502168468180A4
:106DB0000A21C1803848354900901031684600F0FA
:106DC000EDFA002835D12020694688802F49684691
:106DD000183100F0E3FA00282BD12D480ECC3838BA
:106DE00038300EC0682100F059FD29480027FF43C4
:106DF0000C30264E076077810025757035717571EE
:106E0000B5710C388078002814D000F037F90028CC
:106E10000FD11F492C4675707431204668225043AB
:106E20000F504018641CC7644566072CF5DB05E06D
:106E30000720FEBDFFF73CFD0028FAD1012030708D
:106E40000020FEBD30B5114A1378002B07D0002971
:106E500007D00B885278934205D20C2030BD082011
:106E600030BD0E2030BD0A800028FBD0084B002129
:106E7000743306E068244C43E4184D00E48F445317
:106E8000491C9142F6DB002030BD0000E4210020C7
:106E9000F025002074290020956D0100F8B5C74C3D
:106EA0002178002903D000216378C54A0EE008202C
:106EB000F8BD68254D43AD18ED8F854204D148B229
:106EC000411C05D0C5B21CE0491CC9B29942F0D39F
:106ED0000520F8BD68202E464643B9486822371879
:106EE000394668313846FDF751F9B548B4498059FB
:106EF000401E8851F86C411C01D0401EF8646D1C86
:106F0000EDB26078401E8542E4DB60786821AC4ECB
:106F100048438019683800F0C1FC6078401E6070FA
:106F200000F0ACF80028D4D120716071054608E06B
:106F3000682068438019FFF7A1FB0028C9D16D1CA8
:106F4000EDB260788542F3D3002509E068206843FC
:106F500080194C30FFF7CCFB0028BAD16D1CEDB284
:106F600060788542F2D3FFF70FFC0020F8BD93490B
:106F70000A78002A05D08979C907C90F0170002055
:106F800070470820704730B58C4C0546207985B095
:106F9000002805D100221146104600F067FBA081B1
:106FA000864802AA2179103000F05CFA002824D12A
:106FB0000023042202A904A800F0B9FA00281CD179
:106FC00001A9049800F0EDF8002816D104234C2202
:106FD00002A9284600F0ABFA00280ED1774A4C21CE
:106FE0000C32284600F042FBA0816946898888421D
:106FF00005D12079401C2071002005B044E70B200A
:10700000FBE730B56D4C0546607985B0002805D1A9
:1070100000221146104600F029FBE081674802AAD1
:107020006179183000F01EFA0028E6D1002304220E
:1070300002A904A800F07BFA0028DED101A9049877
:1070400000F0AFF80028D8D104231C2202A928465A
:1070500000F06DFA0028D0D1584A1C210E32284683
:1070600000F004FBE08169468988884204D1607998
:10707000401C60710020C0E70B20BEE74F4810B5F0
:107080000A21103000F09CFA002804D14B480A2154
:10709000183000F095FA10BD70B54948683804689A
:1070A000002C1FDB454D687884421BDAE879444E9A
:1070B000002807D068206043314680194C22683987
:1070C000FDF764F8287A002808D0682044433C493A
:1070D000A0194C301C221C39FDF758F8FFF754FB5F
:1070E000002070BD032070BDF8B50646C089FFF7CB
:1070F000C4FB324D334F040002D0052C0CD01FE0EE
:1071000001203049E87100221631688981DF0400CE
:1071100019D0B968884713E029480C22B11D3238CC
:1071200000F012FB00221146688981DF002801D09F
:10713000B9688847002211466889A9DF040002D097
:10714000B96820468847F8BD7CB500780107090F6B
:107150000009012912D0022912D1002810D0174CA1
:107160000126A0793043A07116480C30FFF7FBFAD6
:10717000144D002805D0A968884703E00128EED8FF
:1071800074E4267269680029FAD0022000900D4844
:107190006B460C3002781A71C08FD88068468847D9
:1071A00064E4094B020C9A4202D108800020704727
:1071B000401C01D00B20704705207047E4210020BF
:1071C00064260020F02500202453000014225043A0
:1071D000F64A002180180171C18002220161C2605B
:1071E00041610181704770B5F04E14223078F04C47
:1071F00050438219121D13780F21A588D068042BE3
:1072000002D0022B0DD024E001210907096989B2BF
:1072100000F046FB401950DF01001AD1A088401C45
:1072200014E011699388528840194919521B0125AD
:107230001818AD02AA4202D2920851DF02E0FF22E2
:10724000013251DF010004D1A0884019A080012043
:10725000B070084670BDF8B5D44C0546A7782646F0
:1072600004207678002F01D1002E17D01E2E28D0B2
:1072700020788019C0B21E2801D31E38C0B214264F
:10728000704300190571426106C90261C160C38083
:10729000069901816078401C607011E00020207028
:1072A0002571626103C92161E060E3800698208155
:1072B00001206070FFF797FF002801D0112800D14E
:1072C0000020F8BD38B50246B84814230178B94CFF
:1072D00059430818C36801791B01E458042905D0F3
:1072E000C388009343690C30A04738BD0023F8E7FA
:1072F00010B5AE4902468B780020012B1CD100232B
:107300008B70022A03D0032A16D10D2012E00A78CE
:1073100014235A435118091D0A78042A04D1A44A97
:1073200049889288914201D8FFF7CCFF00F075F9A7
:10733000002801D0FFF7C6FF10BD70B500259C4C9A
:107340009A48A5800570457085702E463046FFF737
:107350003DFF761C1E2EF9D3974865804169974EF4
:10736000491C05D03169406989B200F099FA00E002
:1073700070693169801E89B24843A0608D4AA5803A
:1073800000200101555089180D818D81401C4D81CF
:107390000228F6D301202070002070BDF8B5044605
:1073A00083480E46007800281DD0002C1DD0002EEA
:1073B0001BD02068002818D0804DA788286980B28B
:1073C00087421FD8102F1DD3E0880090002819D0C5
:1073D00079484169491C0AD02969406989B200F09D
:1073E0005FFA014604E00820F8BD0E20F8BD696987
:1073F00028696F4A80B24143009B90687B431B1809
:10740000994201D20720F8BD5188022919D0316074
:107410007060684B0E01F218506027689F51A38876
:107420001381E3885381A388E48800266343761C94
:107430002C69B6B2A4B29C4205D22C69A4B21B1B23
:1074400002E00420F8BD00232C69A4B220182C69A6
:10745000A4B29C42EBD9564B491C98609681598046
:107460000020F8BD70B5524B1B78002B18D00028B7
:1074700018D0002A16D00368022B0FD24D4C1E01E3
:10748000A559002D0AD0456830190489614369184F
:107490004589406865432818884205D8072070BD93
:1074A000082070BD0E2070BD13600020516070BDBB
:1074B000F8B505463E481F46007814460E4600289B
:1074C0001DD0002E1DD0002D1BD02868022814D2FC
:1074D000010138484258002A0FD009184A89088902
:1074E0004968424351186A68914206D9002C04D079
:1074F000A04202D3E119814205D90720F8BD082036
:10750000F8BD0E20F8BD304600F081F800280CD000
:10751000F01900F07CF8002807D0234632462946AF
:1075200002200097FFF797FEF8BD1020F8BDF8B5D0
:1075300007461F481D46007816460C4600281DD0F9
:10754000002C1DD0002F1BD02068022814D219490E
:1075500000010A58002A0FD041184A890889496851
:10756000424351186268914206D9002E04D0B042BD
:1075700002D37119814205D90720F8BD0820F8BD52
:107580000E20F8BD384600F042F800280CD07819DB
:1075900000F03DF8002807D06068324641193846AF
:1075A00000F0D2F80020F8BD1020F8BDE42900203A
:1075B00004220020402C00200010001000000010C9
:1075C00008B527490978002914D0002814D001688B
:1075D00002290DD2234A09015358002B08D08918DB
:1075E0004A890B895A434B68D21843689A4205D896
:1075F000072008BD082008BD0E2008BD8B8900218A
:107600000A46009101460420FFF725FE08BD8007C9
:1076100001D0002070470120704770B5124D142131
:1076200028780F4C41434919C988A288914209D84A
:10763000FFF7CCFD0020A0806878401E6870287895
:10764000401C287068780024002807D0FFF7CBFD85
:10765000040003D0112C01D0FFF734FE204670BD8A
:1076600004220020402C0020E429002010B504460C
:10767000002A02D01088002210E00A48FBE7030A23
:1076800000020343A05C584003061B0F434018034D
:10769000584083B21806C00C5840521C8A42EED3A0
:1076A00010BD0000FFFF0000034610B50B439B0711
:1076B0000FD1042A0DD308C810C9121FA342F8D055
:1076C00018BA21BA884201D9012010BD0020C04358
:1076D00010BD002A03D0D30703D0521C07E00020BE
:1076E00010BD03780C78401C491C1B1B07D1037884
:1076F0000C78401C491C1B1B01D1921EF1D118466D
:1077000010BD000030B5441C03E00178401C002986
:107710000DD08107F9D10B4BDD0104C8D11A91437B
:107720002940FAD0001B0A0603D0C01E30BD001B42
:1077300030BD0A0401D0801E30BD0902FCD0401EBD
:1077400030BD000001010101F8B5042A2CD38307E4
:1077500012D00B78491C0370401C521E83070BD0BB
:107760000B78491C0370401C521E830704D00B7811
:10777000491C0370401C521E8B079B0F05D0C91A71
:10778000DF002023DE1B08C90AE0FCF7FFFCF8BD80
:107790001D4608C9FD401C46B4402C4310C0121FB2
:1077A000042AF5D2F308C91A521EF0D40B78491CEA
:1077B0000370401C521EEAD40B78491C0370401C15
:1077C000521EE4D409780170F8BD431A70B5934293
:1077D0001BD28918801804E0491E521E0B78401EE7
:1077E00003709307F8D106E010390B461038103AB1
:1077F00078CB78C01038102AF6D203E0001F091F9A
:107800000B680360121FF9D570BDFCF7BFFC70BD9B
:10781000F8B5064614460843800707D0751AA542F6
:1078200019D20819102D13D2311907E03046FFF78D
:10783000CCFFF8BD401E491E02780A70641EF9D2C2
:10784000F8BD471B2A463946FFF77EFF641B3846C2
:10785000A542F6D3011B22463046FFF775FFF8BD5F
:1078600001E004C0091F0429FBD28B0701D5028067
:10787000801CC90700D00270704700290BD0C307D5
:1078800002D00270401C491E022904D3830702D58E
:107890000280801C891EE3E70022EEE70022DFE77A
:1078A000002203098B422CD3030A8B4211D30023FD
:1078B0009C464EE003460B433CD4002243088B42D7
:1078C00031D303098B421CD3030A8B4201D3944664
:1078D0003FE0C3098B4201D3CB01C01A5241830957
:1078E0008B4201D38B01C01A524143098B4201D311
:1078F0004B01C01A524103098B4201D30B01C01A3C
:107900005241C3088B4201D3CB00C01A52418308B5
:107910008B4201D38B00C01A524143088B4201D3E2
:107920004B00C01A5241411A00D201465241104642
:1079300070475DE0CA0F00D04942031000D34042B7
:10794000534000229C4603098B422DD3030A8B42ED
:1079500012D3FC22890112BA030A8B420CD389018B
:1079600092118B4208D3890192118B4204D3890171
:107970003AD0921100E08909C3098B4201D3CB01AF
:10798000C01A524183098B4201D38B01C01A524164
:1079900043098B4201D34B01C01A524103098B4268
:1079A00001D30B01C01A5241C3088B4201D3CB0053
:1079B000C01A524183088B4201D38B00C01A524136
:1079C000D9D243088B4201D34B00C01A5241411A0D
:1079D00000D20146634652415B10104601D340423B
:1079E000002B00D54942704763465B1000D34042EC
:1079F00001B50020C046C04602BD704770477047C1
:107A0000754600F023F8AE46050069465346C008A7
:107A1000C000854618B020B5FCF7E4FB60BC002729
:107A20004908B6460026C0C5C0C5C0C5C0C5C0C54A
:107A3000C0C5C0C5C0C5403D49008D46704704461D
:107A4000C046C0462046FCF77AFB0000004870475D
:107A5000602C002001491820ABBEFEE72600020082
:107A6000704770B58C180578401C6B075B0F01D10F
:107A70000378401C2A1106D10278401C03E00678E6
:107A8000401C0E70491C5B1EF9D12B0705D4002346
:107A9000521E0DD40B70491CFAE70378401CCB1A18
:107AA000921C03E01D785B1C0D70491C521EF9D519
:107AB000A142D8D3002070BD0D1801000F1801009D
:107AC0000A18010000AE00D58000A82F00D30000E6
:107AD00040008D1400200000A100C8C800DA120088
:107AE00081CF00D92200DB0000A400A600AF000077
:107AF000000000000000000000A30000003000298A
:107B000000000000000000000001002F0000000045
:107B100000A300000030002A000000000000000068
:107B20000001002F00000000487B01000020002021
:107B300010020000627A0100D07B010010220020B8
:107B4000B01A000004410100111324F4120103349F
:107B5000FFFF0A16FF013B7F7F07114F01C3870F0D
:107B60001F3F0D99011EFEFCF8F0E11B2178080F64
:107B700087C3E0F0F8FC1A0C133F3F3F08C9011B14
:107B8000BF1F3824E1F0F88808F8F06103070F9F61
:107B90005A0B13FEFE0849011B80C035AAFC12C90E
:107BA00001200E0F0301F0FCFCF8E001073FFF018C
:107BB0003B010F078920180EF0C0800F3F3F1F07C1
:107BC00080E0F8FF8019192B2907790101C4000012
:04000005000140C1F5
:00000001FF
